:020000040800F2
:10000000281D0020990100081B1B00088119000809
:10001000191B000845070008B31F00080000000076
:1000200000000000000000000000000001010008C6
:10003000890700080000000045010008E11C0008D5
:10004000B3010008B3010008B3010008B3010008C0
:10005000B3010008B3010008B3010008B3010008B0
:10006000B3010008B3010008B3010008B3010008A0
:10007000B3010008B3010008B3010008B301000890
:10008000B3010008B3010008B3010008B301000880
:10009000B3010008B3010008B3010008B301000870
:1000A000B3010008C11D0008B3010008B301000836
:1000B000B3010008B301000800000000B30100080C
:1000C000B30100080000000000000000B3010008B8
:1000D00000000000B3010008B301000800000000A8
:1000E000B3010008B3010008B3010008DFF80CD029
:1000F00000F098FA004800475D2E0008281D0020F7
:10010000224B19680868B0E8F00F80F30988BFF344
:100110006F8F4FF0000080F311884EF00D0E704786
:100120000000000006480068006880F3088862B696
:1001300061B6BFF34F8FBFF36F8F00DF00BF00BF0B
:1001400008ED00E0EFF30980BFF36F8F0F4B1A68E3
:1001500020E9F00F106008B54FF0500080F31188CF
:10016000BFF34F8FBFF36F8F05F042FB4FF00000DE
:1001700080F31188BDE8084019680868B0E8F00FFE
:1001800080F30988BFF36F8F704700BF28000020FD
:10019000EFF3058070470000064880470648004797
:1001A000FEE7FEE7FEE7FEE7FEE7FEE7FEE7FEE727
:1001B000FEE7FEE7BF1D0008ED000008202A04DB73
:1001C000203A21FA02F00021704721FA02F3D040D0
:1001D000C2F12002914008431946704740EA0103EA
:1001E0009B0703D009E008C9121F08C0042AFAD2ED
:1001F00003E011F8013B00F8013B521EF9D27047B1
:10020000D2B201E000F8012B491EFBD27047002258
:10021000F6E710B513460A4604461946FFF7F0FF05
:10022000204610BD30B50B46014600202022012497
:1002300009E021FA02F59D4205D303FA02F5491BB4
:1002400004FA02F52844151EA2F10102F1DC30BDCA
:100250002DE9F05F0546002092469B4688460646FB
:10026000814640241BE02846414647462246FFF788
:10027000A5FF53465A46C01A914110D3114618465D
:10028000224600F0E1F92D1A67EB01084F4622469D
:100290000120002100F0D8F917EB00094E41201E83
:1002A000A4F10104DFDC484631462A464346BDE856
:1002B000F09F2DE9FE4F804681EA0300C00F0C46F7
:1002C000009021F0004123F00045B8EB0200A94165
:1002D00005D24046214690461C460B46024623F076
:1002E0000040104347D0270DC7F30A00C3F30A515B
:1002F0000290401A019040286BDAC3F3130040F4D7
:10030000801B0098924620B10023D2EB030A63EBD6
:100310000B0B01985946C0F14002504600F094F989
:1003200006460D4650465946019A00F09CF910EBDE
:1003300008006141002487EA115284EAE7731A43F6
:1003400040D0009A62B3019A012A4FEA075215DCA5
:10035000001B61EB02014FF0004202EA0752CDE9B7
:100360000042001C41F5801132462B4600F09CF9FA
:1003700003B0BDE8F08F40462146F9E7001B61EB72
:100380000201001C41F5801300185B412018A2F502
:10039000001747EB030140EAD570B6196D4111E033
:1003A0006D084FEA360645EAC0754FEA0752001B52
:1003B00061EB0201001C41F5801149084FEA300051
:1003C0000019514132462B4603B0BDE8F04F00F012
:1003D0005CB90098012240000023D0EB020263EBDD
:1003E000E073009821464FEAE074B8EB000061EB3F
:1003F0000401E9E783F000435BE781F0004158E73F
:100400002DE9FE4F81EA030404F0004421F000418D
:1004100000944FF0000B23F0004350EA01045ED03B
:1004200052EA03045BD0C3F30A54C1F30A552C44C7
:10043000A4F2F3340194A0FB0254C1F3130141F47C
:100440008011C3F3130343F4801301FB024400FB48
:10045000034E840A970A44EA815447EA8357A4FB6F
:10046000076802958D0A05FB07854FEA932C04FB6C
:100470000C542705029D4FEA065847EA1637B5EB9C
:1004800008056EEB070C870E920E47EA811742EAC9
:100490008312A7FB0201B6EB0B0164EB00042B0DEA
:1004A00043EA0C335E1844EB1C50DA465146E7FB36
:1004B0000201C5F313044FEA0B3343EA14534FEA26
:1004C0000432019C43EA0603A4F10C040294009C4C
:1004D000CDE900B400F0E8F803B0BDE8F08F0020EB
:1004E0000146F9E72DE9F04D81EA030404F0004BE1
:1004F00021F0004514464FF0000A23F0004150EA75
:10050000050220D054EA01021DD0C5F30A57024665
:10051000C5F31303C1F31300C1F30A5640F4801569
:1005200043F48013A7EB0608101BD64608F2FD38EB
:1005300073EB050002D308F1010801E092185B415A
:10054000B8F1000F03DA00200146BDE8F08D00206D
:100550004FF48011064684460EE0171B73EB050727
:1005600005D3121B63EB050306434CEA010C490853
:100570004FEA300092185B4150EA0107EDD152EA90
:10058000030012D082EA040083EA0501084305D083
:10059000101BAB4106D20122002306E000224FF0DF
:1005A000004302E06FF0010253101AEB06004CEB1F
:1005B000085110EB0A0041EB0B01BDE8F04D00F0D3
:1005C00064B8C1F30A52C1F3130140F2FF3341F49E
:1005D00080119A4202DA00200146704740F233430C
:1005E0009A42A2F2334202DC5242FFF7E7BD00F02A
:1005F0002BB8000030B5041E71F1000404DB4FF08D
:100600000044404264EB0101141E73F1000405DB59
:100610001C464FF00043524263EB0403994208BF6B
:10062000904230BD064C074D06E0E06840F0010303
:1006300094E8070098471034AC42F6D3FFF75AFD10
:10064000206E0008406E0008202A04DB203A00FAE1
:1006500002F1002070479140C2F1200320FA03F319
:10066000194390407047202A06DBCB17203A41FA05
:1006700002F043EAE07306E041FA02F3D040C2F12F
:100680002002914008431946704710B5141E73F1BB
:10069000000408DA401C41F1000192185B411A4342
:1006A00001D120F0010010BD2DE9F04D92469B468E
:1006B00011B1B1FA81F202E0B0FA80F22032904634
:1006C000FFF7C2FF04460F4640EA0A0041EA0B0169
:1006D00053465A46084313D0114653EA010019D035
:1006E000C8F140025046FFF769FD05460E465046E8
:1006F00059464246FFF7A8FF084305D0012004E011
:1007000020463946BDE8F08D0020054346EAE076F4
:100710002C4337430A986305E40AA0EB0800002243
:10072000FD0A44EA47540A3002D500200146E9E7B1
:10073000010510196941DDE9084500196941BDE865
:10074000F04DA2E7FEE7000010B506A10C4801F04D
:1007500041FC0C4800235A1E0068BDE810400849BF
:1007600005F0F0B948656C6C6F20467265655254AF
:100770004F53212074696D6572310D0A000000002D
:100780002801002004000020704772B6FEE7000038
:1007900070B5044600F0FCF80546601C02D0044821
:1007A0000078044400F0F4F8401BA042FAD370BD76
:1007B000180000202DE9F84FDFF89C910024A9F1E2
:1007C000040B23460F2709F1040AABF1040EBBE02A
:1007D0000125A5402A40AA4276D1DFF880C14E68A3
:1007E000A6EB0C0866452BD00DDC032E34D005DCBF
:1007F00036B3012E19D0022E2FD11BE0112E16D0A8
:10080000122E2AD119E0B8F5881F19D006DCB8F5E8
:10081000803F15D0B8F5801F1FD111E0B8F5001F3B
:100820000ED0B8F5041F18D10AE0CB6815E0CB68EC
:100830001B1D12E0CB6808330FE0CB680C330CE0D3
:100840008B682BB1012B4FF0080303D0456104E006
:10085000042302E0056100E00023FF2A01D80646D8
:1008600001E000F104064FEA840501D9A5F1200555
:10087000D6F8008007FA05FC28EA0C0803FA05F50B
:1008800048EA0508C6F800804D68ED005BD5344D98
:10089000AE6946F00106AE61AD6924F0030605F0CD
:1008A000010500952F4D06EB050CDCF80850A60756
:1008B000360F07FA06F825EA0805DFF8AC80404550
:1008C00003D14FF0000810E03DE0DFF8A080404584
:1008D00002D14FF0010808E0DFF89480404502D1D2
:1008E0004FF0020801E04FF0030808FA06F848EA62
:1008F0000508CCF808804D68D9F80060ED024D4637
:1009000001D5164300E096432E604D68DAF800608A
:10091000AD02554601D5164300E096432E604D6862
:10092000DBF80060AD035D4601D5164300E0964359
:100930002E604D68DEF80060ED03754601D5164364
:1009400000E096432E60641C0A6832FA04F57FF4D6
:100950003FAFBDE8F88F000008040140000011100F
:10096000001002400000014000080140000C01405E
:1009700000100140C26821EA02030A4043EA024132
:10098000016170470AB1016170470904FBE700008B
:100990000148806870470000180000200248816804
:1009A000027811448160704718000020074810B594
:1009B000016841F010010160032000F0A1F80F2050
:1009C00000F006F800F04AF8002010BD00200240B8
:1009D00030B505461C4887B0816941F400618161EA
:1009E000806906A900F40060009001A800F030F9C9
:1009F00000F05EF91549164AB0FBF1F11548491EA1
:100A00000260416040F2E7320021C0E903218160C9
:100A1000816100F0FCFD040012D10E4800F026FEBA
:100A200004000DD1192000F03DF8102D07D200224E
:100A30002946192000F044F80748056000E0012429
:100A400007B0204630BD00000010024040420F00B9
:100A5000002C0140C00800201C0000200F4808B5F1
:100A6000816941F001018161816901F00101009119
:100A7000C16941F08051C161C069002200F080501D
:100A800000900F21901E00F01BF80548416821F0EE
:100A9000E06141F00071416008BD000000100240BB
:100AA00000000140002809DB00F01F0201219140F5
:100AB0004009800000F1E020C0F8001170470000FC
:100AC000F0B40E4B1B680C46C3F30223C3F10705B9
:100AD000042D00D90425191D072901D2002300E0A7
:100AE000DB1E012606FA05F1491E214099409E4071
:100AF000761E16403143F0BC01F096BA0CED00E0D2
:100B0000064900F0070208684FF6FF03184040EA64
:100B10000220034A10430860704700000CED00E01B
:100B20000000FA052DE9F0470F46050061D0434E5D
:100B3000306800F00700B84209D2306820F00700A2
:100B400038433060306800F00700B84251D128685F
:100B50003B4C810712D5400703D5606840F4E06044
:100B600060602878000703D5606840F460506060DA
:100B70006068A96820F0F000084360602878C0072A
:100B800028D06868012810D02168022810D0890771
:100B900000292EDA616821F0030101436160FFF74B
:100BA000F7FE804641F288390DE021688903EFE7BE
:100BB0008901EDE7FFF7ECFEA0EB0801494502D9FA
:100BC0000320BDE8F0876068696800F00C00B0EBB6
:100BD000810FEFD1306800F00700B8420BD93068C0
:100BE00020F0070038433060306800F00700B8425A
:100BF00001D00120E5E72878400705D56068E9685D
:100C000020F4E060084360602878000706D560683B
:100C1000296920F4605040EAC100606000F058F893
:100C20006168084AC1F30311515CC8400649086075
:100C300006480068FFF7CCFE0020C2E70020024013
:100C40000010024016640008240000201C00002050
:100C50000F2202600C4A536803F003034360536899
:100C600003F0F0038360536803F4E063C3605268E9
:100C70004FF4E06303EAD20202610448006800F026
:100C8000070008607047000000100240002002408A
:100C90000448054900684968044AC1F30221515CCF
:100CA000C84070472400002000100240266400085D
:100CB0000448054900684968044AC1F3C221515CEF
:100CC000C84070472400002000100240266400083D
:100CD0000E4A51680E4801F00C03042B11D0082B6A
:100CE0000FD10C48C1F38343C903C05C0AD55168D6
:100CF000084AC1F34041921E515C054A5043B0FB83
:100D0000F1F070470449484370470000001002406A
:100D100000127A000664000800093D002DE9F84F32
:100D2000040070D02078C04DC00749D06868C0F377
:100D30008100012807D06868C0F38100022809D12A
:100D40006868C00306D52868800339D56068002824
:100D5000E7D035E06068B0F5803F0BD010B1B0F55A
:100D6000A02F11D0286820F480302860286820F453
:100D7000802002E0286840F480302860606890B1EC
:100D8000FFF706FE06460AE0286840F48020286047
:100D9000F0E700BFFFF7FCFD801B642873D82868CC
:100DA0008003F7D50CE0FFF7F3FD064605E000BF32
:100DB000FFF7EEFD801B6428F0D828688003F7D485
:100DC00020789A4E80074FF001094FF0000839D57E
:100DD000686810F00C0F07D06868C0F38100022823
:100DE00009D16868C00306D42868800714D5206933
:100DF000012808D110E02069B0B1C6F80090FFF7D3
:100E0000C7FD074605E00AE1FFF7C2FDC01B022847
:100E1000C4D828688007F7D52868616920F0F800F1
:100E200040EAC10028600DE0C6F80080FFF7B0FD81
:100E3000074604E0FFF7ACFDC01B022823D8286852
:100E40008007F7D4207800072CD57948A169D9B15B
:100E5000C0F80090FFF79CFD074604E0FFF798FDFF
:100E6000C01B02280FD8686A8007F7D571484FF475
:100E7000FA510068B0FBF1F0009000BF0098411EED
:100E80000091FAD20EE080E0C0F80080FFF780FD0C
:100E9000074604E0FFF77CFDC01B022875D8686A8E
:100EA0008007F7D42078400760D5E8690027C000A4
:100EB00008D4E86940F08050E861E869012700F053
:100EC000805000905C480168C90513D401688346CE
:100ED00041F480710160FFF75BFD824606E000BFD0
:100EE000FFF756FDA0EB0A0064284ED8DBF800009F
:100EF000C005F5D5E06801280AD008B1052813D04F
:100F0000286A20F001002862286A20F0040002E02C
:100F1000286A40F001002862E06841F2883B98B1FD
:100F2000FFF736FD82460BE0286A40F00400286295
:100F3000EEE700BFFFF72CFDA0EB0A0159455AD898
:100F4000286A8007F6D50CE0FFF722FD824605E00F
:100F5000FFF71EFDA0EB0A0159454CD8286A80070F
:100F6000F6D41FB1E86920F08050E861E06988B3E9
:100F70006968C1F38101022944D00228C6F8608063
:100F800004D0FFF705FD044638E034E0FFF700FD2C
:100F9000074604E0FFF7FCFCC01B02282BD828689A
:100FA0008001F7D4206AB0F5803F05D16868A16858
:100FB00020F4003008436860D4E9080108436968F8
:100FC00021F4741108436860C6F86090FFF7E0FCF4
:100FD000044606E025E000BFFFF7DAFC001B02280C
:100FE00009D828688001F7D51BE000BFFFF7D0FCC7
:100FF000001B022802D90320BDE8F88F2868800171
:10100000F4D40EE00128F7D06868226A00F4803139
:10101000914204D1616A00F47010884201D001202D
:10102000EAE70020E8E7000000100240000042422A
:1010300080044242240000200070004070B504008B
:1010400009D0606A002540B125616561A56294F808
:10105000510040B10CE0012070BD6068B0F5827FA6
:10106000F4D0E561F2E784F85050204600F040F8F3
:10107000022084F851002068016821F040010160DD
:10108000A088218900F4827001F404410843A189F9
:1010900001F400610843217C01F002010843217D35
:1010A00001F001010843218B01F400710843217F05
:1010B00001F03801084394F8201001F08001084342
:1010C000218D01F40051084321680860A0690421C2
:1010D00001EA1040216848602068C16921F400617C
:1010E000C1616565012084F85100002070BD0000D9
:1010F00030B585B0002400940194029403940068F4
:101100001449884223D11448816941F48051816196
:10111000816901F480510491816941F00401816188
:1011200080690E4D00F004000490A0200090022081
:1011300001900320039069462846FFF73BFB4020BF
:10114000CDE90004694628460294FFF733FB05B059
:1011500030BD000000300140001002400008014096
:101160002DE9F84F044690F851001D4616460F46EB
:10117000012838D160684FF00408B0F5827F01D1B2
:10118000A06830B3FFF704FC8246002F75D0002E14
:1011900073D094F85000012825D04FF0010984F84D
:1011A000509084F851804FF00008C4F85480A76331
:1011B000A687E687C4F83080A4F83480A4F8368087
:1011C000C4F84080C4F84480A068B0F5004F0CD04B
:1011D00015E084F85180009313460A46204600F03B
:1011E0001CF9BDE8F88F0220FBE72068016821F0B8
:1011F000400101602068016821F48041016020689D
:101200000168490603D4016841F040010160E068CB
:10121000C0B134E020688168C90709D0007BA16BA8
:101220000870A06B401CA063E08F401EE08709E0BF
:10123000FFF7AEFBA0EB0A00A84202D3681C01D066
:1012400032E085B3E08F0028E4D11BE0206881689C
:10125000C90709D0C068A16B0880A06B801CA0637F
:10126000E08F401EE0870AE0FFF792FBA0EB0A0048
:10127000A84203D3681C02D016E012E09DB1E08FB3
:101280000028E3D152462946204600F047FC08B129
:101290002020606584F8519084F85080606D0028AB
:1012A0009FD001209DE7FFE784F8519084F850809B
:1012B000032096E72DE9F84F984616468A460446DD
:1012C000FFF766FB814694F8510001281ED1BAF160
:1012D000000F73D0002E71D094F85000012815D063
:1012E000012784F85070032084F8510000256565BB
:1012F000C4F830A0A686E686A563A587E587656461
:101300002564A068B0F5004F03D00CE00220BDE8D2
:10131000F88F2068016821F04001016020680168B1
:1013200041F48041016020680168490603D40168E6
:1013300041F040010160E068B0F5006F606803D0E3
:1013400048B3012E27D047E008B1012E1FD1206BF2
:1013500021680088C86006E020688168890709D58F
:10136000216B0988C160206B801C2063E08E401EC9
:10137000E0860CE0FFF70CFBA0EB0901414503D32D
:10138000B8F1FF3F03D035E0B8F1000F32D0E08E66
:101390000028E1D123E0206B21680078087306E083
:1013A0002068816889070AD5216B09780173206B51
:1013B000401C2063E08E401EE0860DE02BE0FFF72E
:1013C000E7FAA0EB0901414503D3B8F1FF3F03D091
:1013D00010E0B8F1000F0DD0E08E0028E0D14A46B1
:1013E0004146204600F0C8FB08B120206065A06897
:1013F00030B109E084F8517084F85050032086E73A
:101400002068C1688068009084F8517004F8505FCB
:1014100060680028F3D0012079E72DE9FF4F81B003
:101420001D46934604464FF001090E9EFFF7B0FAA1
:10143000074694F851006168012806D0B1F5827F13
:101440003CD1A168C9BB042838D10298002871D0CA
:10145000BBF1000FFBD0002DF9D094F8500001280B
:101460002CD04FF0010A84F850A094F851000428C1
:1014700002D0052084F851004FF00008C4F85480D1
:10148000C4F838B0E587A58702992163E586A5866B
:10149000C4F84080C4F8448020680168490603D439
:1014A000016841F040010160E068B0F5006F6068DC
:1014B00008D0F0B3012D49D081E0FFE7022005B04C
:1014C000BDE8F08F08B1012D39D1206B216800886B
:1014D000C860206B801C2063E08E401EE0862EE0FA
:1014E0002068816889070FD5E18E69B1B9F1010FD4
:1014F0000AD1216B0988C160206B801C2063E08EBB
:10150000401EE0864FF0000920688168C9070CD0B2
:10151000E18F51B1C068A16B0880A06B801CA063F3
:10152000E08F401EE0874FF00109FFF731FAC01B42
:1015300001E00BE067E0B04201D3701C50D1E08EB7
:101540000028CDD1E08F0028CAD13EE0206B216871
:1015500000780873206B401C2063E08E401EE086FC
:101560002DE02068816889070FD5E18E69B1B9F156
:10157000010F0AD1216B09780173206B401C206395
:10158000E08E401EE0864FF0000920688168C907A0
:101590000CD0E18F51B1C068A16B0870A06B401CEA
:1015A000A063E08F401EE0874FF00109FFF7F0F9DC
:1015B000C01BB04202D3701C01D011E086B1E08E96
:1015C0000028CED1E08F0028CBD13A4631462046C4
:1015D00000F0D2FA50B12020606584F8508012E00B
:1015E00084F851A084F85080032068E7A06818B9F7
:1015F0002068C1688068009084F851A084F8508009
:10160000606D0028F1D0012059E77047704710B590
:10161000040003D094F83D0010B107E0012010BD94
:10162000002084F83C00204600F01EF8022084F8D8
:101630003D00211D206800F0C9FB012084F8460010
:1016400084F83E0084F83F0084F8400084F84100AC
:1016500084F8420084F8430084F8440084F845008C
:1016600084F83D00002010BD7047000090F83D1048
:10167000012901D001207047022180F83D10016846
:10168000CA6842F00102CA6000680A49884205D06F
:10169000B0F1804F02D00849884204D1816801F03E
:1016A0000701062903D0016841F001010160002013
:1016B00070470000002C01400004004070472DE9F5
:1016C000F04104460068C66805694FF00007A907A5
:1016D00013D5B10711D5F91E0161012020772068CB
:1016E00080698007204602D0FFF7E8FF04E000F0A1
:1016F0007EF8204600F07CF82777680716D570073B
:1017000014D521686FF0040008610220207720685A
:10171000806910F4407F204602D0FFF7CFFF04E03D
:1017200000F065F8204600F063F82777280715D504
:10173000300713D521686FF0080008610420207776
:101740002068C0698007204602D0FFF7B7FF04E099
:1017500000F04DF8204600F04BF82777E80616D544
:10176000F00614D521686FF010000861082020777A
:101770002068C06910F4407F204602D0FFF79EFF2A
:1017800004E000F034F8204600F032F82777E8074C
:1017900008D0F00706D021686FF0010008612046EC
:1017A00000F028F8280608D5300606D521686FF025
:1017B000800008612046FFF728FF680608D57006FC
:1017C00006D521686FF040000861204600F01CF843
:1017D000A8060AD5B00608D521686FF02000086178
:1017E0002046BDE8F041FFF711BFBDE8F08170472A
:1017F0007047000000680349884201D1FFF7CEB866
:1018000070470000002C0140704770B5040004D000
:1018100094F84100002510B106E0012070BD84F865
:101820004050204600F024F8242084F8410020682D
:10183000C16821F40051C160204600F025FB2068FA
:10184000016921F4904101612068416921F02A0178
:1018500041612068C16841F40051C1606564202085
:1018600084F8410084F842006563002070BD0000E8
:1018700030B585B00024009401940294039400686C
:101880001449884224D11448816941F4804181611E
:10189000816901F480410491816941F00401816111
:1018A00080690E4D00F0040004904FF40070009029
:1018B000022001900320039069462846FEF77AFF34
:1018C0002815CDE90004694628460294FEF772FF08
:1018D00005B030BD00380140001002400008014052
:1018E0002DE9F843044690F84100984616460D4607
:1018F000202802D00220BDE8F88385B17EB1002007
:101900006064212084F84100FFF742F8A6848146F4
:10191000E684A0682027B0F5805F02D003E00120B4
:10192000E9E7206910B12E4600250EE000260CE004
:101930008021204600F004FBA8B9C6B116F8010BBF
:1019400021684860E08C401EE084E08C4B464FF0FC
:101950000002CDF800800028EAD14FF04001204677
:1019600000F0EEFA40B184F841700320C3E735F887
:10197000020BC0F30800E3E784F841700020BAE7E7
:10198000FEE7000010B598B000225021022004F0BC
:1019900041F81A4C1A4900222060D1E90001CDE932
:1019A0001501012115A801F00BFB4FF47A7120619C
:1019B00001F026FB12491C2208316846FEF70EFC96
:1019C0000021684601F0D2FA0D49A0601C222431A2
:1019D00007A8FEF703FC002107A801F0C7FA084991
:1019E000E0601C2240310EA8FEF7F8FB00210EA893
:1019F00001F0BCFA606018B010BD000004000020C7
:101A0000A8630008F0B585B0002520480095019531
:101A100002950395816941F010018161816901F0AE
:101A200010010491816941F020018161816901F017
:101A300020010491816941F0040181618069144EA3
:101A400000F004004FF40054049000222146304678
:101A5000FEF798FF0F4F012210213846FEF792FF44
:101A60000220CDE9025000940124694601943046D9
:101A7000FEF7A0FE1020CDE900040320CDE90240CE
:101A800069463846FEF796FE05B0F0BD00100240EC
:101A90000010014000080140104810B50E490160D7
:101AA0004FF48271416000218160C1604FF4007287
:101AB0000161C0E905121022C0E90721416281627B
:101AC0000A21C162FFF7BAFA002803D0BDE810402E
:101AD000FEF75BBE10BD0000003001402008002072
:101AE0000C4810B50A4901604FF4E1314160002112
:101AF00081600C22C160C0E904128161C161FFF7FD
:101B000084FE002803D0BDE81040FEF73EBE10BDA5
:101B10000038014078080020FEE7FEE7F8B50446EB
:101B200040684FF48273984217D1A0684FF48065E3
:101B3000B0F5004F01D0A8420FD12068066826F00A
:101B4000400606606068984207D1A068A84204D1A8
:101B500000920B460022012103E000920B46002276
:101B60008021204600F022F8002804D0606D40F06B
:101B7000200060650320F8BDF8B515460E460B46FB
:101B8000009204460122022100F010F840B93346C9
:101B9000002280212046009500F008F8002804D09B
:101BA000606D40F0200060650320F8BD2DE9F8432A
:101BB0001E46914688460446089DFEF7E9FE401BF6
:101BC000351AFEF7E5FE074625480068C0F3CB301E
:101BD000684338E0701C37D0FEF7DAFEC01BA8421D
:101BE00003D215B1009860B32CE02068416821F061
:101BF000E00141606068B0F5827F0BD1A068B0F56C
:101C0000004F02D0B0F5806F04D12068016821F048
:101C100040010160A06AB0F5005F09D12068016849
:101C200021F4005101602068016841F40051016015
:101C3000012084F85100002084F850000320BDE802
:101C4000F8830025401E00902068816838EA010072
:101C500004D000214945BDD10020F0E70121F9E77A
:101C600024000020012001F075F9FBE74FF47A759C
:101C7000DFF84080104C4FF4005600BF04F0AEF97E
:101C80000746284601F066F931464046FEF772FEE7
:101C900004F0A4F9C01B82B208A10D4800F09AF923
:101CA0000CA000F087F900231A460949206803F0C8
:101CB00049FFE3E700100140040000207461736BEA
:101CC0002031202533642020636E740D0A0000004B
:101CD000280100206C656420666C6173680A00004E
:101CE00010B5502080F31188BFF34F8FBFF36F8F73
:101CF00004F07AF918B104494FF0805008600020D0
:101D000080F3118810BD000004ED00E02DE9F041E2
:101D10000C4C00200C4E4FF4005541F288372060E7
:101D200029463046FEF726FE08A0216800F042F959
:101D30003846FEF72DFD2068401C20600328EFD3B5
:101D4000BDE8F08100000020001001405379737459
:101D5000656D436865636B202564200D0A000000F3
:101D600030B58FB028216846FEF751FA14210AA831
:101D7000FEF74DFA01210804CDE900100024029479
:101D800002250491CDE907504FF4E0100990684610
:101D9000FEF7C4FF08B172B6FEE70F20CDE90A05D1
:101DA0004FF48060CDE90C4002210AA80E94FEF7A2
:101DB000B9FE002801D072B6FEE70FB030BD704703
:101DC0000148FFF77CBC0000C008002070B5026825
:101DD000174B184C4FF08046984203D0B04201D0C8
:101DE000A04203D122F070054A682A43984203D0EA
:101DF000B04201D0A04203D122F44074CA68224309
:101E00004C6922F08002224302608A68C2620A683A
:101E10008262984201D1096901630121416101692E
:101E2000C90703D0016921F00101016170BD000003
:101E3000002C01400004004001680C3151E8002FE3
:101E400022F4907241E80023002BF5D1016814318F
:101E500051E8002F22F0010241E80023002BF5D1C8
:101E6000016B012909D101680C3151E8002F22F0E2
:101E7000100241E80023002BF5D1202180F8421008
:101E8000002101637047000070B5044600680169D5
:101E9000E26821F44051114301612169A0680843BF
:101EA000616908432168CA6841F20C639A4302439E
:101EB000CA6020684169A26921F4407111434161FF
:101EC0001E492068884202D1FEF7F2FE01E0FEF7CB
:101ED000DFFE00EBC00101EB0012606864218000AE
:101EE000B2FBF0F3B3FBF1F36FF018067343B2FBF0
:101EF000F0F5B2FBF0F605EB8305322303EB051595
:101F0000B5FBF1F5B6FBF1F605F0F00505EB0615AE
:101F1000B2FBF0F6B2FBF0F0B0FBF1F06FF018029C
:101F2000504306EB800003EB0010B0FBF1F021689A
:101F300000F00F002844886070BD000000380140A8
:101F40002DE9F843984617460D460446089E24E0BE
:101F5000701C22D0FEF71CFDA0EB0800B0421AD87E
:101F6000CEB12068C168490717D5802D15D0402D06
:101F700013D00168C94309070FD4016800254068E0
:101F800000902046FFF758FF0820606484F8405016
:101F90000120BDE8F8830320FBE72068006835EAEC
:101FA000000004D00020B842D2D00020F1E7012088
:101FB000F9E7FEE70FB4054B10B503A9044A0298F0
:101FC00000F014F910BC5DF814FB0000812B000830
:101FD000240100200FB4084B10B504A902AA0398ED
:101FE00000F004F9044602A9002000F0A1FC2046FC
:101FF00010BC5DF814FB0000312900087CB50446D4
:1020000000201D46164600290BD0491ECDE900418F
:10201000044B6A462946304600F0E8F8009A002151
:1020200011707CBD1B2900080907090E002804DB7C
:1020300000F1E02080F80014704700F00F0000F17C
:10204000E02080F8141D704702E008C8121F08C184
:10205000002AFAD170477047002001E001C1121F29
:10206000002AFBD1704700002DE9FF5F82B00021FC
:10207000DDE90430020DDDF840B0034318D044F62A
:102080001050A2F2FF3242431514119801281FD0BC
:10209000A5EB0B00401C5FEA000A4FF000064E4F14
:1020A000DFF83891B046504615D5CAF1000413E068
:1020B000119801244AA3012801D16FEA0B0102986B
:1020C000119AC0E90031C0E9024206B0BDE8F09FB4
:1020D000CBF10000DFE704460021404A491842EBFB
:1020E0000450CDE9001012E0E00707D032463B462D
:1020F00040464946FEF784F98046894632463B46CB
:1021000010461946FEF77CF906460F466410002C6F
:10211000EAD1DDE90401DDE90023BAF1000F06DAB6
:10212000FEF76EF942464B46FEF76AF905E0FEF708
:10213000D9F942464B46FEF7D5F904460E46002231
:10214000284BFEF757FA03D84FF0FF30014607E05F
:102150000022254B20463146FEF7ABF8FEF731FA58
:10216000102409E0002C0ADB0A220023FEF770F895
:10217000039B30321A55641E50EA0102F2D1641CEE
:10218000039AC4F111031444119A012A03D00122C5
:1021900008430DD10AE0084304D000204FF0110B92
:1021A000119072E7A3EB0B056D1E0DE05B4504DD9E
:1021B0004FF0000205F1010504E003DA4FF00002E0
:1021C000A5F10105002AECD002981199C0E902316D
:1021D000C0E9004579E70000000014400000F03F2E
:1021E000300000000000F0430000E03F2DE9FF4F09
:1021F00095B09B468946064600250FE2252877D1F3
:1022000000242746F84A0121059400E0044316F80B
:10221000013F203B01FA03F01042F7D130782A2821
:1022200011D06FF02F033078A0F13002092A16D8B0
:10223000059A44F0020402EB820203EB42021044CE
:10224000761C0590EFE759F8042B0592002A03DA73
:10225000504244F40054059044F00204761C307857
:102260002E2816D116F8010F44F004042A280DD0A8
:102270006FF02F023078A0F13003092B09D807EB5B
:10228000870302EB4303C718761CF3E759F8047B76
:10229000761C30786C280FD006DC4C2817D06828C4
:1022A0000DD06A2814D104E0742810D07A280FD1F8
:1022B0000DE044F400140AE044F4801401E044F416
:1022C00040147278824202D104F58014761C761C88
:1022D000307866280BD013DC582877D009DC00282A
:1022E00075D04528F6D04628F4D047281AD19DE16C
:1022F00018E0632835D0642879D0652812D195E19B
:10230000702873D008DC6728F1D069286FD06E2858
:102310000DD06F2806D1B5E073282CD0752875D064
:10232000782874D05A46179990476D1C75E1C4F30C
:102330000250022809D003280DD0D9F80010042833
:102340000DD00D6009F1040967E1D9F80010EA1712
:10235000C1E90052F6E7D9F800100D80F2E70D70E0
:10236000F0E719F8041B8DF8001000208DF801002B
:10237000EA46012003E059F804AB4FF0FF30610753
:102380004FF0000102D40DE008F101018846B94286
:102390000FDA8045F8DB1AF808100029F4D108E0BC
:1023A00008F1010188468142FADB1AF80810002979
:1023B000F6D105985B46A0EB080721463846179AE8
:1023C00000F094FA284400EB080507E04DE029E10D
:1023D0000DE01AF8010B5A4617999047B8F1010819
:1023E000F7D25B4621463846179A13E142E00A22AB
:1023F0000092C4F302524FF0000A022A08D059F8A2
:1024000004CB032A4FEAEC710AD00DE029E02AE060
:1024100009F1070121F00702F2E802C1914609E043
:102420000FFA8CFC4FEAEC71042A03D14FFA8CFCB2
:102430004FEAEC71002907DA0A460021DCF1000CB2
:1024400061EB02012D2202E0220504D52B228DF83A
:102450000420012203E0E20701D02022F7E79046A2
:1024600059E00A2102E010220DE010214FF0000A8D
:1024700000910BE010224FF0000A44F004040827FA
:10248000009203E008224FF0000A0092C4F30252C7
:10249000022A05D059F804CB0021032A08D009E00C
:1024A00009F1070121F00702F2E802C1914605E0B7
:1024B0001FFA8CFC042A01D10CF0FF0C4FF000082D
:1024C000220728D5702806D0009B83F0100353EA1A
:1024D0000A0305D00EE040228DF80420012208E016
:1024E0005CEA010206D030228DF804208DF8050048
:1024F00002229046009B83F0080353EA0A030AD1A4
:102500005CEA010201D1620705D530228DF8042072
:102510004FF001087F1E582804D034A003900EA865
:1025200002900DE036A0F9E753466046009AFDF7A9
:102530008FFE84460398825C0298401E02900270CF
:102540005CEA0100F0D1029806A9081A00F1200AFD
:10255000600702D524F4803400E00127574502DDEE
:10256000A7EB0A0000E0002000EB0A0100900598AC
:102570004144401A0590E00306D45B462146179A71
:10258000059800F0B3F90544002706E001A85A4673
:10259000C05D179990476D1C7F1C4745F6DBE00333
:1025A0000CD55B462146179A059800F09FF9054423
:1025B00004E030205A46179990476D1C0099481E38
:1025C00000900029F5DC08E0029802995A4600784C
:1025D000491C0291179990476D1CBAF10001AAF1AC
:1025E000010AF1DC65E100000928010030313233D5
:1025F000343536373839616263646566000000003F
:102600003031323334353637383941424344454628
:102610000000000000F058F90544761C30780028CE
:102620007FF4ECAD19B02846BDE8F08F620700D406
:10263000062709F1070222F0070CFCE80223E14615
:1026400003F000485FEA080C02D00FF2702C0DE096
:102650005FEA045C02D50FF2682C07E05FEAC47CF5
:1026600002D00FF2602C01E0AFF2700C4FF0FF3897
:1026700023F00043CDF850C065280CD006DC452877
:1026800009D046281DD047283DD13DE0662818D006
:1026900067287ED138E00021112F01DB112000E0F6
:1026A000781CCDE9000106A90EA8FFF7DDFCDDE9E5
:1026B0000F010E9A03910021009207F1010A049183
:1026C0004DE04FF000400097CDE9011006A90EA89B
:1026D000FFF7CAFCDDE90F0203920E9B119900225D
:1026E000DDF80CA00093049211B9791C00EB010AEB
:1026F000B7EB0A0004D4C0F1FF3007F1010A0490DF
:10270000AAEB0700019044E0012F00DA0127002125
:10271000112F01DD112000E03846CDE9000106A9A6
:102720000EA8FFF7A1FCDDE90F010E9A039100212D
:1027300004910092BA4621070CD40399514500DA5E
:102740008A46BAF1010F05DD009AAAF10101515C38
:10275000302908D0B84202DA10F1040F06DA01215C
:10276000CDE9011015E0AAF10101E9E7002805DC37
:10277000049901440491AAEB000102E0411C514577
:1027800000DD8A460499401A401C01904FF0004039
:102790000290200704D40198504501DBCDF8048055
:1027A00000208DF84F0002980DF14F07B0F1004F57
:1027B00025D02B200E9002984FF0020800280CDA4A
:1027C000404202902D200E9007E00A210298FDF76A
:1027D00029FD3031029007F8011DB8F10001A8F180
:1027E0000108F2DC02980028EFD1791E0E980870DB
:1027F000307800F0200040F0450007F8020D12A8E4
:10280000C01B00F107081498007800B1012000EB0C
:102810000A01019801EBE07105984144401A401EFD
:102820000590E00306D45B462146179A059800F010
:102830005DF805441498007818B15A4617999047E6
:102840006D1CE00324D55B462146179A059800F0DD
:102850004DF805441CE00498002807DBDDE903017E
:10286000884203DD0098405C179901E017993020F9
:102870005A469047049805F10105401C04900198C0
:10288000401E019004D12E205A46179990476D1C86
:10289000BAF10001AAF1010ADDDC05E017F8010B2D
:1028A0005A46179990476D1CB8F10001A8F101082C
:1028B000F4DC5B462146179A0598ABE62D00000034
:1028C0002B000000200000002DE9F0410446002507
:1028D0001E461746880404D405E039462020B04738
:1028E0006D1C641EF9D52846BDE8F0812DE9F04144
:1028F000044600251E469046C80301D5302700E057
:102900002027880404D505E041463846B0476D1CB1
:10291000641EF9D52846BDE8F0814A68002A06D031
:102920000A68531C0B6010704868401E486070476E
:102930000A68531C0B601070704700002DE9FE4FB1
:102940000E465FEA00084E491D46174608F1200969
:102950004FF0010A0ED098F83800002813D0D8F8AC
:102960001000F119814217D946A002F0B1FA0520F2
:10297000BDE8FE8F00914DA34EA240F2B92155A0B3
:1029800002F084FAFEE700915EA34AA240F2BA2167
:1029900050A002F07BFAFEE7D9F80C10484601B1CE
:1029A0008847F0070CD028463146012300906D1C63
:1029B000761C1A46404600F051FB040054D17F1E9D
:1029C0000121404601F044FF04004DD1AD208DF8B7
:1029D00004000DF1040B34E0BAF1000F13D05C4693
:1029E000621C3146404600F059FA98F8390008B1A7
:1029F000052200E004222878A054A11868784870C5
:102A00004FF0000A06E028788DF80500687801226A
:102A10008DF80600002000900023D9F804404846B5
:102A200001A9921CA047040003D03AA002F050FA7A
:102A30001AE0404602F00AFF040015D1AD1CB61C96
:102A4000BF1E022FC8D20021404601F001FF040042
:102A50000AD1012F0CD101231A4631464046009578
:102A600000F0FCFA040003D00021404601F0F0FE23
:102A7000D9F81010484601B18847204678E7000091
:102A8000586700084572726F723A20466C6173682D
:102A90002061646472657373206973206F7574209C
:102AA0006F6620626F756E642E000000666C617345
:102AB0006800000028257329206861732061737302
:102AC000657274206661696C656420617420257389
:102AD0002E0000002E2E5C4D6964646C6577617277
:102AE00065735C54686972645F50617274795C5399
:102AF0004655445C736675645C7372635C7366759B
:102B0000642E6300666C6173682D3E696E69745F44
:102B10006F6B00004572726F723A20466C61736889
:102B20002077726974652053504920636F6D6D750D
:102B30006E6963617465206572726F722E000000A9
:102B400042F2107000E000BF401E80B2FBD270471E
:102B500010B506A0FFF72EFA002002F03BF9BDE801
:102B600010404FF48052002102F01AB8B2C1B3FDF8
:102B7000D2BBB8F6C9C8C7F8CAFDBEDD0D0A000051
:102B800001B54FF0FF33012269460248FEF7A8FE67
:102B9000009808BD78080020F8B5634D040016D0F1
:102BA00002F078FB002870D1032084F84800606AA6
:102BB000A8B12069002500281AD0A08A002817D0C3
:102BC000A069002814D0207F002811D069E057A305
:102BD00058A2FC215FA0009502F058F9FEE769A316
:102BE00054A240F209115BA0009502F04FF9FEE7F4
:102BF000204601F0FDFA00286CD1204602F03CFA94
:102C0000F8B1A560E06D2061B4F85400012816D039
:102C10000120A082206EA06194F86400207701203A
:102C200004EBC002116E31B1A3698B4203D9A161DB
:102C300092F864102177401C0428F1D329E0022087
:102C4000E7E7544A237B002000EB400602EBC60175
:102C50000F799F421AD14F7994F80DC0674515D16D
:102C60008F7994F80EC0674510D100EB400052F800
:102C70003000A06002EBC600806820618889A082D5
:102C80000869A061087D207703E023E0401C152837
:102C9000DAD32069D0B1A08AC0B1A069B0B1207FD9
:102CA000A0B13C4A002094F80C10803A02EBC0031B
:102CB0001B798B420FD152F8301079B1A268002AEB
:102CC00029D035A0236902F003F90BE03DA002F002
:102CD000FFF80120F8BD401C1028E7D347A0216968
:102CE00002F0F6F8204601F059FC0028F2D1217DCF
:102CF000490706D500220121204602F0EFFA0028FC
:102D0000E8D12169B1F1807F0AD92046BDE8F840B9
:102D1000012101F005BD43A0226902F0D9F8E1E7E5
:102D200084F83950F8BD0000FF660008666C6173D6
:102D3000680000002825732920686173206173737F
:102D4000657274206661696C656420617420257306
:102D50002E0000002E2E5C4D6964646C65776172F4
:102D600065735C54686972645F50617274795C5316
:102D70004655445C736675645C7372635C73667518
:102D8000642E6300666C6173682D3E7370692E77E4
:102D900072000000B864000846696E642061202556
:102DA0007320257320666C61736820636869702ED8
:102DB0002053697A6520697320256C6420627974D8
:102DC00065732E005761726E696E673A20546869A8
:102DD0007320666C61736820646576696365206939
:102DE00073206E6F7420666F756E64206F72206E34
:102DF0006F7420737570706F72742E0046696E6404
:102E0000206120666C61736820636869702E2053AE
:102E1000697A6520697320256C6420627974657312
:102E20002E00000046696E64206120257320666CC8
:102E300061736820636869702E2053697A65206920
:102E40007320256C642062797465732E0000000085
:102E5000EFF30580002800D001207047FDF7A6FDA4
:102E6000FEF77EFFFEF7CEFDFEF73AFEFEF714FEFC
:102E700001F0B8FFFEF74AFFFFF76AFE02F054FDCB
:102E800001F01EFCFEF77EFD00F06BF8FEE7014648
:102E90000020842900D0C81C7047000038B5144BAE
:102EA00030B172B190F83900002813D0042312E039
:102EB000009310A311A24FF4787118A001F0E6FF5F
:102EC000FEE7009321A30DA240F2E13113A001F02F
:102ED000DDFFFEE7032300201C1AE400083C21FA72
:102EE00004F41454401CC0B29842F5D338BD00001D
:102EF000B5670008666C61736800000028257329B7
:102F00002068617320617373657274206661696CF7
:102F100065642061742025732E0000002E2E5C4D08
:102F20006964646C6577617265735C546869726426
:102F30005F50617274795C534655445C7366756486
:102F40005C7372635C736675642E63006172726198
:102F50007900000010B500B9012002F095FB0020B7
:102F600010BD10B502F0F8FB002010BD7FB50D4676
:102F700004464169B0F9080081B1A16971B1FFF758
:102F800086FFD4E905128DE80700D4E900102B462E
:102F9000226902F0EAFF039004B070BDFFF777FFEB
:102FA00003A9CDE90001208A2B4682B2D4E90010A2
:102FB00002F0AEFF012801D00020EDE70398EBE717
:102FC0001CB511C86CB1CDE90004012907D000205F
:102FD00013460246012109A003F06EF91CBD012031
:102FE000F6E70090012907D0002013460246012190
:102FF00002A003F047F91CBD0120F6E70000000025
:103000002DE9FC41002507462E4601950C0000D114
:103010000124FFF71DFF009690B101AB2246092164
:10302000384603F091F9012812D1019888B10A4974
:103030004FF080500860BFF34F8FBFF36F8F08E0F1
:10304000002322460421384603F07EF9012800D0EF
:10305000FF252846BDE8FC8104ED00E02DE9F84F8E
:1030600006004E481C46154689464FF0000806F1FA
:1030700020070DD0012C14D0B4F5807F11D0009022
:1030800047A351A24FF4197157A001F0FFFEFEE7CC
:10309000009061A34CA240F2622153A001F0F6FE21
:1030A000FEE796F8381051B1316909EB0500884206
:1030B0000ED95BA001F00CFF0520BDE8F88F009051
:1030C00061A341A240F2662147A001F0DFFEFEE7C6
:1030D000F968DFF884B1002954D03846884751E0B8
:1030E0000121304601F0B4FB5FEA00084CD1022018
:1030F0008BF800000BF1010249463046FFF7CEFE87
:1031000096F8390008B1052000E00420B9FBF4F17D
:10311000804604FB119068B1B9FBF4F104FB1190F7
:10312000201AA8420AD2B9FBF4F104FB1190A4EBD7
:10313000000A04E0A54201D9A24600E0AA46A5EB98
:103140000A05D1440BEB080052460A99FDF746F8F0
:10315000002000900346D7F804C008EB0A023E495D
:103160003846E0475FEA000803D03CA001F0B0FE1B
:103170000AE0304602F06AFB5FEA000804D10A98D0
:1031800050440A90002DABD10021304601F060FB85
:10319000396909B13846884740468EE740670008DC
:1031A00077726974655F6772616E203D3D203120E2
:1031B0007C7C2077726974655F6772616E203D3D2B
:1031C00020323536000000002825732920686173FD
:1031D00020617373657274206661696C6564206137
:1031E000742025732E0000002E2E5C4D6964646CE3
:1031F0006577617265735C54686972645F5061726F
:1032000074795C534655445C736675645C73726391
:103210005C736675642E6300666C61736800000001
:103220004572726F723A20466C6173682061646403
:1032300072657373206973206F7574206F662062E6
:103240006F756E642E000000666C6173682D3E69B8
:103250006E69745F6F6B0000201700204572726FFB
:10326000723A20466C6173682077726974652053E6
:10327000504920636F6D6D756E696361746520657B
:1032800072726F722E00000094B0064D4FF0FF3442
:1032900022466946286802F065FD694602A0FEF7ED
:1032A00089FEF5E7040000207063207072696E7477
:1032B0002025730A000000002DE9F041184C0F464C
:1032C0000546E6682068001D02F0AAF838B92068B3
:1032D00090F82C1001208840216981432161681CED
:1032E00007D137B12168BDE8F0410E48091D02F051
:1032F000E7B820683544B5424560216805D2A06B27
:10330000BDE8F041091D02F0C3B8606B091D02F071
:10331000BFF8A06A854200D2A562BDE8F081000036
:1033200028000020240A00202DE9F041054602F083
:10333000D3F82E4CA068401CA06020682C4F10B120
:10334000606940B32DE02560A068012829D10026DE
:1033500006EB860007EB800002F08CF8761C072E47
:10336000F6D323488C3002F085F82148A03002F0D3
:1033700081F81F48B43002F07DF81D48C83002F0D3
:1033800079F81B48DC3002F075F819488C3060631E
:103390001430A06305E02068E96AC06A884200D85A
:1033A0002560606A401C6062E96A012022698840E9
:1033B0001043206101EB810007EB8000291D02F022
:1033C0007FF802F0A9F8606900280CD02068E96A4B
:1033D000C06A884207D207494FF080500860BFF3A7
:1033E0004F8FBFF36F8FBDE8F081000028000020F1
:1033F0004809002004ED00E038B502F06DF8104CEB
:103400002068C8B90F4802F035F80E48143002F0B1
:1034100031F80C48E060143020610A4B0020C03BBA
:10342000009003F148020C210A2002F014FB2060F6
:1034300010B105A102F0F2F8BDE8384002F06CB816
:1034400064000020F80A0020546D72510000000052
:1034500030B4026C0B46002A0BD0C1681144C16025
:103460008468A14201D30168C16030BC1846FCF7F2
:10347000B5BE30BC70472DE9F041856B1746044658
:103480000026026C82B1C7B1E068FCF7A7FEE168D4
:10349000206C091AE1602268914202D2A168081AE0
:1034A000E060022F16D017E02068A8B9A06802F0EB
:1034B00001FE06460020A0600EE06068FCF78EFE6C
:1034C000216C606808446060A168884204D3206869
:1034D000606001E005B16D1E6D1CA5633046BDE85E
:1034E000F08110B5044690F8510058B101280CD075
:1034F00002280FD0502080F31188BFF34F8FBFF305
:103500006F8FFEE7206B02F01BF82046BDE81040ED
:1035100002F016B810BD000010484FF44061420799
:1035200006D0C01D0D4920F00700411AC1F54061C9
:103530000B4A00230144C2E900030839183A21F07C
:10354000070111604B600B600B1AC0E90013936018
:103550004FF000405360506170470000200B002086
:1035600090000020144E154CA6F1C8074FF080586B
:10357000DFF84C9012E000BF01F0AEFFF068C568C4
:10358000281D01F04DFFA068401EA0606068401E2D
:10359000606001F0C1FF2846FFF7A3FF60680028C4
:1035A000EAD138680128F9D9C9F80080BFF34F8FF4
:1035B000BFF36F8FF2E70000100A00202800002000
:1035C00004ED00E00346009829B10260C0E90F3124
:1035D000012102F073BA0060F8E72DE9F0479A463E
:1035E000DDE9098481466FF00303206B03EB82025F
:1035F0001044089E20F00707780707D0502080F37A
:103600001188BFF34F8FBFF36F8FFEE7002561B1C5
:10361000002023180A5C83F834200A5C12B1401C95
:103620001028F6D384F8435001E084F83450072E74
:1036300000D30626E662C4E91165201D01F025FFCE
:1036400004F1180001F021FF2461C6F10700646253
:10365000A061E56484F8505052464946384600F06F
:103660007BFA2060B8F1000F01D0C8F80040BDE837
:10367000F0872DE9F0471E46DDE9089417460D0056
:10368000804615D0002C11D0FFF7B6FE04F11801CA
:10369000C4F8008081E86002201D01F0F6FE002FD2
:1036A00004D014F8240F40F004002070BDE8F08727
:1036B000502080F31188BFF34F8FBFF36F8FFEE769
:1036C00030B5114900E011460A688242FBD34B68CD
:1036D0005C18844203D14068184448600846436837
:1036E0001C18944209D1084C183C2468A24209D005
:1036F00052681A4442600A6812680260814200D02F
:10370000086030BD0460F9E79000002070B5002427
:1037100041600B4D0061914206D8D11A82699142F5
:1037200006D2011D286907E09A4203D2994201D3CB
:10373000012403E0011DE86801F0AAFE204670BDE7
:103740006400002010B5044601F0C6FEA06B28B14D
:103750005FF0000401F0E0FE204610BD0124F9E70F
:1037600030B587B0394D67E00498002864DB069CCB
:10377000606910B1201D01F053FE03A800F0D8F8D5
:10378000024604980A2857D2DFE800F00505052D07
:10379000334A05052D3394F8240040F0010084F8E5
:1037A00024000599A069059B01442046FFF7AEFF60
:1037B00068B3216A2046884794F8240040073BD527
:1037C000002000900598A169002342181946204660
:1037D00002F0BAFDD8B9502080F31188BFF34F8FA3
:1037E000BFF36F8FFEE714F8240F20F00100207064
:1037F00022E094F8240040F0010084F824000598A9
:10380000A06128B1811813462046FFF77FFF13E01F
:10381000502080F31188BFF34F8FBFF36F8FFEE707
:1038200094F82400810703D4204601F089FE03E0C8
:1038300020F0010084F82400002204A9286802F086
:1038400091FA002890D107B030BD0000640000203C
:103850002DE9FC410F46054601F0C2FF01A800F02A
:1038600067F80446019818B102F0AAFCBDE8FC8193
:10387000254EAFB130690068D0B30027291B3A4606
:10388000306801F0DFFE02F09BFC0028EED11F49FA
:103890004FF080500860BFF34F8FBFF36F8FE5E7A5
:1038A000A542EBD802F08CFCF0682746C068C468DB
:1038B000201D01F0B5FD94F82400410719D5A06939
:1038C0002B4641193A462046FFF720FFA8B10020B9
:1038D0000346014600902A46204602F035FD60B9B5
:1038E000502080F31188BFF34F8FBFF36F8FFEE737
:1038F00007E020F0010084F82400216A2046884770
:10390000B4E70127BAE700006400002004ED00E0FE
:103910000648416B096829B1416BC968C9684968A3
:10392000816270474FF0FF31FAE700002800002065
:1039300070B5054602F052FB064E0446B06884425C
:1039400003D200F009F8012000E0002028602046A2
:10395000B46070BD64000020F8B5194D20E0C06867
:10396000C4680668201D01F05BFD216A2046884777
:1039700094F82400400713D5A0693044B04206D91A
:1039800024616060211DE86801F082FD08E00020EC
:103990000346014600903246204602F0D5FC38B17D
:1039A000E86801680029DAD12969C5E90310F8BD82
:1039B000502080F31188BFF34F8FBFF36F8FFEE766
:1039C0006400002008484068401C4FF0500080F31D
:1039D000118804D0BFF34F8FBFF36F8FFEE7BFF3A3
:1039E0004F8FBFF36F8FFEE798000020074CE06811
:1039F000016841B1C0680021D0F80000FFF728FF3E
:103A0000FFF7AEFEF3E701210020F7E76400002096
:103A10002DE9F041044601F05FFD94F9455004F1B1
:103A2000240609E0606A48B1304602F08FFB08B115
:103A300001F058FE6D1E6DB2002DF3DC4FF0FF3625
:103A400084F8456001F068FD01F046FD94F94450AA
:103A500004F1100709E0206948B1384602F076FB0E
:103A600008B101F03FFE6D1E6DB2002DF3DC84F84D
:103A70004460BDE8F04101F04FBD00002DE9F04188
:103A80000546002701F0ACFE324E306808B9FFF75A
:103A900043FD706905424ED1C5B3083568070ED0A5
:103AA00005F00700C0F108000544680707D0502062
:103AB00080F31188BFF34F8FBFF36F8FFEE72DB3F5
:103AC0007068854237D82348183001460C6801E0F9
:103AD00020460C466168A94202D221680029F7D12C
:103AE00031688C4227D00768216801606068083718
:103AF000411B10290FD96019420708D0502080F3CC
:103B00001188BFF34F8FBFF36F8FFEE713E0416063
:103B10006560FFF7D5FD61687068401A7060B26833
:103B2000904200D2B060706901430020C4E90001F6
:103B3000F068401CF06002F043FB780707D050208B
:103B400080F31188BFF34F8FBFF36F8FFEE73846C6
:103B5000BDE8F0817800002010B5031F4FF080749D
:103B60001C601B1F21F001011960191F024B0B6023
:103B7000143940380A6010BDC539000830B50C460C
:103B800087B00821002204920592244A58B1002CE3
:103B900011D0082304AA00F0A5FB002813D020A010
:103BA00001F096F92BE000922BA32DA2962134A0D0
:103BB00001F06CF9FEE700923FA329A2972130A003
:103BC00001F064F9FEE79DF8103023709DF8112094
:103BD00062709DF81210A1709DF81300E070059DB1
:103BE000012925F07F45656003D9374801F070F958
:103BF00005E0092806D20146344801F069F90020A1
:103C000007B030BD00910395CDE90120304AAD21C8
:103C10001BA001F03BF90120F2E70000FE6700085D
:103C20004572726F723A2043616E2774207265612B
:103C300064204A4544454320626173696320666C91
:103C400061736820706172616D657465722068656A
:103C5000616465722E000000666C6173680000008C
:103C6000282573292068617320617373657274203D
:103C70006661696C65642061742025732E00000004
:103C80002E2E5C4D6964646C6577617265735C545B
:103C9000686972645F50617274795C534655445C24
:103CA000736675645C7372635C736675645F736678
:103CB00064702E630000000062617369635F686571
:103CC0006164657200000000506C0008D86D000847
:103CD0007C6B00082DE9F0418EB00E46054600F1E0
:103CE00050044F68242104A8FCF791FA8B485DB179
:103CF000002E11D0242304AA3946284600F0F2FAF7
:103D0000002811D086A0B1E0009093A394A2C22114
:103D10009BA001F0BBF8FEE70090A7A390A2C321EF
:103D200097A001F0B3F8FEE7A7A2CB2194A001F081
:103D3000ADF8AFA2CC2192A001F0A8F8002504AE06
:103D400006EB850016F8252041788378C078CDE908
:103D50000003CDE90212B0466B1CACA2CE2188A0B4
:103D600001F094F86D1CEDB2092DE9D39DF81130E6
:103D7000E3719DF81000002600F0030001250128E2
:103D800003D0032808D0AAA070E0A571B64AD721B5
:103D90007BA001F07BF805E0A671B4A2DB2178A03E
:103DA00001F074F89DF81000C0F38000002831D0B5
:103DB00038B14FF48070A080B9A2EA2170A001F060
:103DC00065F89DF81000C0F3C000002826D0A0B10F
:103DD0002672BE4AFA216AA001F058F89DF8100038
:103DE000C0F3001000281DD038B10620B84A607218
:103DF0004FF4827162A001F049F89DF81200C0F3FF
:103E00004100A0B1012818D00228A67234D0E67271
:103E1000B0A02BE0A580B8A2E621CFE72572BEA214
:103E2000F521E7E750206072C74AFF21E2E7A5725B
:103E3000E672C6A240F20F1104E0A572E572C9A2B3
:103E40004FF48A714EA001F021F89DF81400DDF8BE
:103E5000151040EA01209DF81710C90911D0B9B119
:103E600020F0004023280FD9C548E66001F030F863
:103E700000200EB0BDE8F081E572C2A240F2191137
:103E8000E0E705EBD00002E0C01E05FA00F0E060BC
:103E9000C2A240F231113AA0E36800F0F7FF002619
:103EA0004FEA060708EB4602117F89B105FA01F0D7
:103EB00004EBC70301461861507F18758B0A009008
:103EC000BCA240F237112EA000F0E0FF7F1CFFB231
:103ED000761CF6B2042EE5D35FF0000004EBC002BE
:103EE0001169A1B1411C0FE004EBC1031F6957B177
:103EF0001669BE4207D992F814C017611F7D177565
:103F00001E6183F814C0491CC9B20429ECD3401CBB
:103F1000C0B20428E2D325700120AAE71068000887
:103F20005761726E696E673A2043616E2774207222
:103F3000656164204A45444543206261736963209A
:103F4000666C61736820706172616D657465722062
:103F50007461626C652E0000666C6173680000001D
:103F6000282573292068617320617373657274203A
:103F70006661696C65642061742025732E00000001
:103F80002E2E5C4D6964646C6577617265735C5458
:103F9000686972645F50617274795C534655445C21
:103FA000736675645C7372635C736675645F736675
:103FB00064702E630000000062617369635F68656E
:103FC00061646572000000004A4544454320626117
:103FD00073696320666C61736820706172616D65DE
:103FE000746572207461626C6520696E666F3A0058
:103FF0004D53422D4C53422020332020202032208C
:104000002020203120202020300000005B2530348B
:10401000645D203078253032582030782530325891
:104020002030782530325820307825303258000042
:104030004572726F723A20556E69666F726D2034E8
:10404000204B4220657261736520737570706F72CA
:1040500074656420696E666F726D6174696F6E203D
:104060006572726F722E0000386B0008556E6966BB
:104070006F726D2034204B42206572617365206938
:104080007320756E617661696C61626C6520666F24
:10409000722074686973206465766963652E000018
:1040A0005772697465206772616E756C61726974AC
:1040B00079206973203634206279746573206F72B9
:1040C000206C61726765722E00000000A46C00080D
:1040D000606D00084572726F723A2052656164200B
:1040E00061646472657373206279746573206572AC
:1040F000726F722100000000577269746520677248
:10410000616E756C61726974792069732031206207
:104110007974652E00000000546172676574206632
:104120006C6173682073746174757320726567695C
:1041300073746572206973206E6F6E2D766F6C617B
:1041400074696C652E000000E86C0008332D42791C
:104150007465206F6E6C7920616464726573736935
:104160006E672E00332D206F7220342D42797465D6
:104170002061646472657373696E672E00000000CD
:10418000086C0008342D42797465206F6E6C7920BC
:1041900061646472657373696E672E004361706158
:1041A0006369747920697320256C64204279746591
:1041B000732E0000466C61736820646576696365E0
:1041C00020737570706F72747320256C644B42207D
:1041D000626C6F636B2065726173652E20436F6D37
:1041E0006D616E64206973203078253032582E005E
:1041F0007FB5040004F1200011D09F218DF80C1030
:1042000003210091456802AB012203A9A8470500DC
:104210000FD011A000F05CFE04B0284670BD194814
:10422000009019A31AA240F2553121A000F02EFEF1
:10423000FEE79DF8083023739DF8090060739DF830
:104240000A10A173CDE90001254A40F25D3118A0A2
:1042500000F01CFEE0E700004572726F723A2052D7
:1042600065616420666C6173682064657669636566
:10427000204A45444543204944206572726F722E9E
:104280000000000062670008666C6173680000004F
:104290002825732920686173206173736572742007
:1042A0006661696C65642061742025732E000000CE
:1042B0002E2E5C4D6964646C6577617265735C5425
:1042C000686972645F50617274795C534655445CEE
:1042D000736675645C7372635C736675642E6300E9
:1042E000B86800083EB520A5D5E90045CDE90145EF
:1042F0000C0C8DF805400C0A8DF806401C4C8DF80E
:10430000071058B1B1F1807F11D31AA31DA240F25A
:104310005B1124A0009400F0B9FDFEE72FA319A2C1
:104320004FF4AD711FA0009400F0B0FDFEE742B164
:10433000456A7DB100931346052201A92030A847A4
:104340003EBD28A30FA24FF4AE7116A0009400F05A
:104350009DFDFEE726A30BA240F25D1111A0009483
:1043600000F094FDFEE700005A000000FF0000008E
:104370002168000861646472203C20314C203C3C80
:1043800020323400282573292068617320617373FB
:10439000657274206661696C6564206174202573A0
:1043A0002E0000002E2E5C4D6964646C657761728E
:1043B00065735C54686972645F50617274795C53B0
:1043C0004655445C736675645C7372635C736675B2
:1043D000645F736664702E6300000000666C617336
:1043E00068000000726561645F627566000000002D
:1043F000666C6173682D3E7370692E7772000000E1
:104400001FB5002100F150040291039150B12170B9
:10441000082302AAFFF766FF00280CD01FA000F0B7
:1044200057FD2AE02548009025A327A26D212EA044
:1044300000F02CFDFEE79DF8080053280BD19DF8F5
:104440000900462807D19DF80A00442803D19DF8A9
:104450000B00502805D0324A7A2123A000F016FD27
:104460000BE09DF80C00A0709DF80D106170012903
:1044700006D9A2782BA000F02BFD002004B010BDBF
:104480009DF80E20A078CDE900020B4633A28321CF
:1044900015A000F0FBFC0120F0E700004572726FF0
:1044A000723A2043616E277420726561642053461E
:1044B0004450206865616465722E0000ED67000855
:1044C000666C617368000000282573292068617399
:1044D00020617373657274206661696C6564206124
:1044E000742025732E0000002E2E5C4D6964646CD0
:1044F0006577617265735C54686972645F5061725C
:1045000074795C534655445C736675645C7372637E
:104510005C736675645F736664702E6300000000F0
:10452000906A00084572726F723A2054686973206D
:10453000726576657273696F6E285625642E2564E0
:10454000292053464450206973206E6F7420737580
:1045500070706F727465642E0000000043686563BC
:104560006B2053464450206865616465722069730E
:10457000204F4B2E205468652072657665727369F2
:104580006F6E206973205625642E25642C204E50B2
:104590004E2069732025642E000000002DE9FC41A7
:1045A000050005F1200412D0662000278DF80400D4
:1045B000009766683B46012201A92046B0470600E5
:1045C0000FD018A000F084FC3046BDE8FC811E48E6
:1045D00000901EA31FA240F2353126A000F056FC29
:1045E000FEE7284601F032F999208DF80500009782
:1045F0000023666801220DF105012046B047040042
:1046000004D1284601F022F9040004D005A000F0EE
:104610005FFC2046D9E723A24FF4527115A000F0A9
:1046200035FCF6E74572726F723A20466C6173682A
:1046300020646576696365207265736574206661C0
:10464000696C65642E00000030640008666C61735C
:104650006800000028257329206861732061737346
:10466000657274206661696C6564206174202573CD
:104670002E0000002E2E5C4D6964646C65776172BB
:1046800065735C54686972645F50617274795C53DD
:104690004655445C736675645C7372635C736675DF
:1046A000642E6300466C6173682064657669636597
:1046B00020726573657420737563636573732E0070
:1046C00070B59AB012A0FDF775FC002000F082FBD7
:1046D000044664216846FBF79AFD6B46642200217C
:1046E000204600F011FC00246D460A26295D0BA02F
:1046F000FDF760FCB4FBF6F006FB104010B906A015
:10470000FDF758FC641CE4B2642CEFD31AB070BD02
:10471000B6C1C8A1CAFDBEDD0D0A00002564200097
:104720007CB50C46050007D0012100F091F8002867
:104730002FD15CB1B7200AE01648009016A318A24A
:1047400040F29B311EA000F0A1FBFEE7E9208DF8AE
:1047500004000020009003466E6A012201A905F1C1
:104760002000B047060002D074B121A10DE085F809
:1047700039400CB11EA300E01FA321A240F2AD31CD
:104780000FA000F083FB03E01BA126A000F0A0FB1C
:1047900030467CBD82670008666C6173680000006B
:1047A00028257329206861732061737365727420F2
:1047B0006661696C65642061742025732E000000B9
:1047C0002E2E5C4D6964646C6577617265735C5410
:1047D000686972645F50617274795C534655445CD9
:1047E000736675645C7372635C736675642E6300D4
:1047F000456E746572000000457869740000000021
:10480000257320342D427974652061646472657368
:1048100073696E67206D6F6465207375636365737C
:10482000732E00004572726F723A20257320342D6A
:10483000427974652061646472657373696E672080
:104840006D6F6465206661696C65642E0000000010
:10485000FEB50D46040002D05DB106200AE01748FF
:10486000009017A318A240F272311FA000F00EFBB7
:10487000FEE704208DF80400002000900346666ADD
:10488000012201A904F12000B047002814D102A997
:10489000204600F045FC00280ED19DF808104FEA94
:1048A00081711DB1002907DB1BA002E0002903DA9A
:1048B00022A000F00DFB0220FEBD00007067000882
:1048C000666C617368000000282573292068617395
:1048D00020617373657274206661696C6564206120
:1048E000742025732E0000002E2E5C4D6964646CCC
:1048F0006577617265735C54686972645F50617258
:1049000074795C534655445C736675645C7372637A
:104910005C736675642E63004572726F723A204351
:10492000616E277420656E61626C652077726974B0
:1049300065207374617475732E0000004572726F88
:10494000723A2043616E27742064697361626C65FA
:10495000207772697465207374617475732E00001A
:104960007CB505002A4805F120040DD095F83810D3
:1049700099B1E16809B12046884701212846FFF72F
:1049800067FF060039D111E0009022A323A240F274
:10499000C1112AA000F07AFAFEE7009033A31FA20B
:1049A00040F2C31125A000F071FAFEE7C7208DF890
:1049B0000400287D01074FF000000DD594218DF8EB
:1049C000051080218DF806109A218DF807100090AF
:1049D00000230422666803E0009000236668012239
:1049E00001A92046B047060003D024A000F070FAC9
:1049F00003E0284600F02AFF064600212846FFF77C
:104A000027FF216909B12046884730467CBD000058
:104A100025670008666C617368000000282573290B
:104A20002068617320617373657274206661696CBC
:104A300065642061742025732E0000002E2E5C4DCD
:104A40006964646C6577617265735C5468697264EB
:104A50005F50617274795C534655445C736675644B
:104A60005C7372635C736675642E6300666C61735D
:104A7000682D3E696E69745F6F6B00004572726FDE
:104A8000723A20466C6173682063686970206572B1
:104A90006173652053504920636F6D6D756E696356
:104AA000617465206572726F722E000038B504461D
:104AB000FEF772F8050009D0002084F838000CA039
:104AC000D4F8001000F004FA284638BD2CB10120BB
:104AD00084F8380011A02168F4E71A4800901AA35E
:104AE0001BA24FF4BE7122A000F0D0F9FEE7000037
:104AF0004572726F723A20257320666C617368206C
:104B000064657669636520697320696E697469619B
:104B10006C697A65206661696C2E000025732066D9
:104B20006C617368206465766963652069732069C8
:104B30006E697469616C697A652073756363657306
:104B4000732E00000D670008666C6173680000003A
:104B5000282573292068617320617373657274203E
:104B60006661696C65642061742025732E00000005
:104B70002E2E5C4D6964646C6577617265735C545C
:104B8000686972645F50617274795C534655445C25
:104B9000736675645C7372635C736675642E630020
:104BA0002DE9FE4F04005148154688464FF0000697
:104BB00004F120070ED094F83810002913D0206992
:104BC00008EB0501814217D949A000F081F90520C1
:104BD000BDE8FE8F009050A351A240F2FD1158A0F5
:104BE00000F054F9FEE7009061A34DA240F2FF11DE
:104BF00053A000F04BF9FEE7B8F1000F05D1A84231
:104C000003D12046FFF7ACFEE2E7F968002960D047
:104C1000384688475DE000BF94F8500050B12A46FE
:104C20004146204600F0D0FA04EBC00090F864A0A2
:104C3000006E02E094F81CA0A06901218146204684
:104C4000FFF706FE060046D18DF804A00DF105021F
:104C500041462046FEF722F994F8390008B10522B2
:104C600000E004220020009003467E6801A9384637
:104C7000B047060003D042A000F02AF92BE02046FE
:104C800000F0E4FD060026D14946B8FBF1F209FB2D
:104C90001280B8B1B8FBF1F209FB1281A9EB010057
:104CA000A84218D2B8FBF9F209FB1281B8FBF9F25D
:104CB000A9EB010009FB12812D1AA9EB010101EBFF
:104CC000080005E04D4506D9A5EB090508EB0900EC
:104CD0008046002DA0D100212046FFF7B9FD39699B
:104CE00009B138468847304672E70000356700084A
:104CF0004572726F723A20466C6173682061646419
:104D000072657373206973206F7574206F662062FB
:104D10006F756E642E000000666C617368000000A1
:104D2000282573292068617320617373657274206C
:104D30006661696C65642061742025732E00000033
:104D40002E2E5C4D6964646C6577617265735C548A
:104D5000686972645F50617274795C534655445C53
:104D6000736675645C7372635C736675642E63004E
:104D7000666C6173682D3E696E69745F6F6B0000CD
:104D80004572726F723A20466C6173682065726179
:104D900073652053504920636F6D6D756E69636153
:104DA0007465206572726F722E0000002DE9F0416B
:104DB0001C4615460E460746FFF7F2FE002807D1AF
:104DC00023462A4631463846BDE8F04100F070BA25
:104DD000BDE8F08108B1002070470148704700002D
:104DE000A400002010B5002409A30BA2742119A06F
:104DF00000F04CF8234A752116A000F047F822482D
:104E000000214160FFF752FE00B10446204610BD6C
:104E1000312E312E30000000537461727420696E9F
:104E2000697469616C697A652053657269616C2087
:104E3000466C61736820556E6976657273616C208B
:104E40004472697665722853465544292056257365
:104E50002E0000002E2E5C4D6964646C65776172D3
:104E600065735C54686972645F50617274795C53F5
:104E70004655445C736675645C7372635C736675F7
:104E8000642E630074680008A40000200FB410B5FD
:104E90000A46014605AC08A0FDF78CF823464FF4FE
:104EA00080710948049AFDF7A9F8074907A0FDF7A2
:104EB00081F810BC5DF814FB5B534655445D282512
:104EC000733A256C642920002518002025730A00F8
:104ED0000FB410B503AC08A0FDF76CF823464FF4EF
:104EE00080710748029AFDF789F8054905A0FDF78A
:104EF00061F810BC5DF814FB5B534655445D00003F
:104F00002518002025730A002DE9FE4304003348CC
:104F100099461746884604F1200511D0B9F1000FD3
:104F200017D094F8381000291CD0216908EB07002D
:104F3000884220D92AA0FFF7CBFF0520BDE8FE83D9
:104F4000009031A332A24FF4C87139A0FFF79EFF41
:104F5000FEE7009042A32EA240F2911134A0FFF789
:104F600095FFFEE7009040A329A240F2931130A0E4
:104F7000FFF78CFFFEE7E96809B12846884720461D
:104F800000F064FC060022D194F84800032808D001
:104F90000097AE684B4604F1480241462846B047A8
:104FA00014E003208DF804000DF10502414620466F
:104FB000FDF774FF94F8390008B1052200E00422DF
:104FC00000976C684B4601A92846A0470646296908
:104FD00009B1284688473046B0E700001B67000843
:104FE0004572726F723A20466C6173682061646426
:104FF00072657373206973206F7574206F66206209
:105000006F756E642E000000666C617368000000AE
:105010002825732920686173206173736572742079
:105020006661696C65642061742025732E00000040
:105030002E2E5C4D6964646C6577617265735C5497
:10504000686972645F50617274795C534655445C60
:10505000736675645C7372635C736675642E63005B
:105060006461746100000000666C6173682D3E69C4
:105070006E69745F6F6B00003EB504000CD0FFF7E3
:10508000BFF990B101A92046FEF778FD68B101A9EA
:105090002046FEF71FFE3EBD0748009007A309A269
:1050A000512110A0FFF7F2FEFEE71C482168FFF730
:1050B0000FFF00203EBD0000DE670008666C6173D4
:1050C00068000000282573292068617320617373CC
:1050D000657274206661696C656420617420257353
:1050E0002E0000002E2E5C4D6964646C6577617241
:1050F00065735C54686972645F50617274795C5363
:105100004655445C736675645C7372635C73667564
:10511000645F736664702E6300000000DC6A000840
:105120001CB505228DF804200E4A40B181B1012240
:1051300000920B46446A01A92030A0471CBD009292
:1051400009A30BA24FF4707111A0FFF79FFEFEE7B9
:1051500000921BA306A240F2C1310DA0FFF796FEFC
:10516000FEE700009A670008666C61736800000043
:105170002825732920686173206173736572742018
:105180006661696C65642061742025732E000000DF
:105190002E2E5C4D6964646C6577617265735C5436
:1051A000686972645F50617274795C534655445CFF
:1051B000736675645C7372635C736675642E6300FA
:1051C0007374617475730000F8B5034690F850006D
:1051D000002438B1186EB1FBF0F500FB151058B182
:1051E0000020F8BD0E4800900EA314A24FF4B77132
:1051F0001AA0FFF74BFEFEE75FF0030003EBC005CC
:105200002D6E35B1954204D8B1FBF5F605FB1615A8
:1052100015B110B1401EF1E704462046F8BD00006C
:1052200030680008666C6173682D3E736664702E8A
:10523000617661696C61626C6500000028257329E4
:105240002068617320617373657274206661696C94
:1052500065642061742025732E0000002E2E5C4DA5
:105260006964646C6577617265735C5468697264C3
:105270005F50617274795C534655445C7366756423
:105280005C7372635C736675645F736664702E63CF
:1052900000000000044A4262044AC26342F21072F3
:1052A0000021026408467047CD530008412B0008D6
:1052B000F8B504460020A58AEE0706D000934FF407
:1052C00080732046FDF7CAFEF8BD6D07FCD501B01E
:1052D0002046BDE8F040FDF731BB00002DE9FC4160
:1052E000174600F1200460B10026A1B150208DF8CE
:1052F0000400009600236568012201A92046A84702
:105300000CE01148009011A312A24FF47E7119A075
:10531000FFF7BCFDFEE70121FFF79AFA05000DD16A
:1053200001208DF804008DF8057000960023656853
:10533000022201A92046A847050002D019A0FFF7C4
:10534000C7FD2846BDE8FC81CC670008666C617328
:105350006800000028257329206861732061737339
:10536000657274206661696C6564206174202573C0
:105370002E0000002E2E5C4D6964646C65776172AE
:1053800065735C54686972645F50617274795C53D0
:105390004655445C736675645C7372635C736675D2
:1053A000642E63004572726F723A20577269746599
:1053B0005F73746174757320726567697374657265
:1053C000206661696C65642E000000002DE9F047DD
:1053D000114F14468A460026994632461021384617
:1053E000089DFBF7CFFA4FF47A782CB1A2B243466E
:1053F00051460A48FBF75EFF2DB1AAB24346494623
:105400000648FBF7ADFE012210213846FBF7BAFA39
:105410003046BDE8F0870000000801402008002069
:10542000D0E9013201699A60D0E901235A604A68E3
:10543000824201D182684A60002202610868401EEF
:105440000860086870470000034B036003F15400D4
:10545000086080201060704778010020044B0360D2
:1054600003F1540008604FF4807010607047000032
:10547000CC03002000F108014FF0FF32C0E9011217
:10548000C160016100210160704700210161704726
:1054900030B50B685A1C02D000F1080202E0026924
:1054A00004E02246546825689D42FAD953684B604F
:1054B00099608A60516008610168491C016030BDD3
:1054C00042684A6093688B60936859609160086194
:1054D0000168491C01607047502080F31188BFF3B8
:1054E0004F8FBFF36F8F0A494868401C48600128FE
:1054F0000CD10848006810F0FF0F07D0502080F34F
:105500001188BFF34F8FBFF36F8FFEE77047000026
:105510009800002004ED00E00849486828B1401ECA
:10552000486001D180F311887047502080F31188C2
:10553000BFF34F8FBFF36F8FFEE70000980000208E
:1055400070B500282AD0164DA0F10804606869697A
:10555000084207D1502080F31188BFF34F8FBFF36B
:105560006F8FFEE722683AB1502080F31188BFF3B5
:105570004F8FBFF36F8FFEE78843606000F030F914
:1055800060686968084468602046FEF799F82869F1
:10559000401C2861BDE8704000F012BE70BD0000E4
:1055A000780000204FF0E020002101618161054971
:1055B0004FF47A720968B1FBF2F1491E416107218B
:1055C000016170472400002010B5FAF7E1FD114990
:1055D00010280ED300F1E02090F8F0030A789042F2
:1055E00007D2502080F31188BFF34F8FBFF36F8F26
:1055F000FEE709480068896800F4E060884207D93E
:10560000502080F31188BFF34F8FBFF36F8FFEE7F9
:1056100010BD0000980000200CED00E010B5084B14
:10562000002200BF53F832401CB1521C082AF9D3A3
:1056300010BD43F8321003EBC201486010BD0000FA
:105640000809002070B515460E460446FFF744FFD2
:1056500094F944100020491C01D184F8440094F9C5
:105660004510491C01D184F84500FFF755FFA06B98
:1056700028B92A46314604F1240000F051F82046AA
:10568000BDE87040FEF7C4B910B5020014D00F4851
:10569000006B38B1502080F31188BFF34F8FBFF3F8
:1056A0006F8FFEE700F09CF800211046FDF704FE26
:1056B00000F086FD002807D105494FF080500860B2
:1056C000BFF34F8FBFF36F8F10BD00002800002085
:1056D00004ED00E002490A6A0260C968416070474F
:1056E0002800002001490120C861704728000020DF
:1056F00010B50C4650B1094909681831FFF7C8FECA
:105700002046BDE810400121FDF7D6BD502080F3B2
:105710001188BFF34F8FBFF36F8FFEE72800002083
:1057200070B514460D4668B10A4909681831FFF78B
:10573000C7FE0CB14FF0FF3521462846BDE870404A
:10574000FDF7BABD502080F31188BFF34F8FBFF330
:105750006F8FFEE72800002030B587B00024039447
:1057600005AA04A903A80494FFF76EFEDDE903016E
:105770000094CDE90110002315A11748059A00F007
:10578000F4FB164D0028E8621FD000F0ADFD0128A3
:1057900009D0401C19D1502080F31188BFF34F8FDE
:1057A000BFF36F8FFEE7502080F31188BFF34F8F58
:1057B000BFF36F8F4FF0FF30A86201206861EC608B
:1057C00007B0BDE8304000F0D1B807B030BD0000F0
:1057D00049444C45000000006535000828000020C1
:1057E0000248016B491C016370470000280000203B
:1057F0001448016B11B10121C16170470021C161E1
:105800000169B1FA81F1C1F11F0101EB81020E4979
:1058100051F822306BB101EB820101F108034A68B3
:1058200052684A609A4201D152684A60D168016068
:105830007047502080F31188BFF34F8FBFF36F8FF5
:10584000FEE7000028000020480900207CB5060083
:10585000356C09D11348009013A315A240F2CB3147
:105860001BA0FFF713FBFEE701A93046FFF758FC2A
:1058700004469DF8040000F0010020430FD0F06BB7
:105880001DB100B180476D1EEEE79DF804000424B1
:1058900000F00100204302D019A0FFF719FB2046B9
:1058A0007CBD0000AB670008666C61736800000097
:1058B00028257329206861732061737365727420D1
:1058C0006661696C65642061742025732E00000098
:1058D0002E2E5C4D6964646C6577617265735C54EF
:1058E000686972645F50617274795C534655445CB8
:1058F000736675645C7372635C736675642E6300B3
:105900004572726F723A20466C61736820776169E4
:105910007420627573792068617320616E206572EE
:10592000726F722E0000000010B59AB00CA0FCF748
:1059300041FB0020FFF74EFA044664216846FAF75F
:1059400066FC002168464154491CC9B26429FAD357
:105950000346642200212046FFF728FA1AB010BD42
:10596000D0B4C8EBCAFDBEDD0D0A00001CB5264947
:1059700008780190FF20087008788DF800009DF8E5
:1059800000009DF8002000F0F000904207D0502069
:1059900080F31188BFF34F8FBFF36F8FFEE79DF841
:1059A00000001A4C00F0500020700720A06005E0B5
:1059B0009DF8002052008DF80020401E9DF8002028
:1059C0001206F5D4A060032807D0502080F3118878
:1059D000BFF34F8FBFF36F8FFEE74FF44070A060AF
:1059E000019808700A48016841F47001016001687B
:1059F00041F070410160FFF7D5FD00206060FAF7CB
:105A000091FB00201CBD000000E400E09800002095
:105A100020ED00E0F8B517460E46050013D005FB53
:105A200006F04830FEF72AF804000AD0002084F877
:105A3000460004F148023B46314628460094FDF7F3
:105A4000C1FD2046F8BD502080F31188BFF34F8F71
:105A5000BFF36F8FFEE738B5049D18B153B1CAB1DB
:105A600081B120E0502080F31188BFF34F8FBFF346
:105A70006F8FFEE7502080F31188BFF34F8FBFF385
:105A80006F8FFEE7502080F31188BFF34F8FBFF375
:105A90006F8FFEE739B1502080F31188BFF34F8F2D
:105AA000BFF36F8FFEE748241C46012384F846307D
:105AB0002B460094FDF786FD204638BD70B50D4697
:105AC000040025D0FFF708FDD4E90F20216802FB70
:105AD0000011A1600021A163216861600A46D4E938
