:020000040800F2
:10000000101700209901000803190008891700083B
:1000100001190008B5050008471D00080000000090
:1000200000000000000000000000000001010008C6
:10003000B70500080000000045010008C91A0008C3
:10004000B3010008B3010008B3010008B3010008C0
:10005000B3010008B3010008B3010008B3010008B0
:10006000B3010008B3010008B3010008B3010008A0
:10007000B3010008B3010008B3010008B301000890
:10008000B3010008B3010008B3010008B301000880
:10009000B3010008B3010008B3010008B301000870
:1000A000B3010008551B0008B3010008B3010008A4
:1000B000B3010008B301000800000000B30100080C
:1000C000B30100080000000000000000B3010008B8
:1000D00000000000B3010008B301000800000000A8
:1000E000B3010008B3010008B3010008DFF80CD029
:1000F00000F0D6F8004800475522000810170020ED
:10010000224B19680868B0E8F00F80F30988BFF344
:100110006F8F4FF0000080F311884EF00D0E704786
:100120000000000006480068006880F3088862B696
:1001300061B6BFF34F8FBFF36F8F00DF00BF00BF0B
:1001400008ED00E0EFF30980BFF36F8F0F4B1A68E3
:1001500020E9F00F106008B54FF0500080F31188CF
:10016000BFF34F8FBFF36F8F02F018FE4FF0000008
:1001700080F31188BDE8084019680868B0E8F00FFE
:1001800080F30988BFF36F8F704700BF28000020FD
:10019000EFF3058070470000064880470648004797
:1001A000FEE7FEE7FEE7FEE7FEE7FEE7FEE7FEE727
:1001B000FEE7FEE7531B0008ED000008202A04DBE1
:1001C000203A21FA02F00021704721FA02F3D040D0
:1001D000C2F12002914008431946704740EA0103EA
:1001E0009B0703D009E008C9121F08C0042AFAD2ED
:1001F00003E011F8013B00F8013B521EF9D27047B1
:10020000D2B201E000F8012B491EFBD27047002258
:10021000F6E710B513460A4604461946FFF7F0FF05
:10022000204610BD30B504460020034600E05B1CAC
:10023000934203D2E05CCD5C401BF8D030BD2DE989
:10024000F05F0546002092469B468846064681465A
:1002500040241BE02846414647462246FFF7AEFFB2
:1002600053465A46C01A914110D3114618462246A9
:1002700000F028F82D1A67EB01084F4622460120AE
:10028000002100F01FF817EB00094E41201EA4F1D9
:100290000104DFDC484631462A464346BDE8F09F6C
:1002A000064C074D06E0E06840F0010394E80700C3
:1002B00098471034AC42F6D3FFF71CFF9036000885
:1002C000B0360008202A04DB203A00FA02F10020B0
:1002D00070479140C2F1200320FA03F31943904084
:1002E0007047000038B5044600F056FA0546202055
:1002F0008DF80000200C8DF80100200A8DF8020016
:100300008DF8034000F028F9104C002210212046FF
:1003100000F03CFA4FF47A73042269460C4800F06E
:10032000CDFE01221021204600F030FA00F012F834
:100330000228FBD000F030FA401B40F6B83188426A
:1003400001D9032038BD002038BD0000000801405D
:10035000380500207CB511A0114C006800900022E7
:100360001021204600F012FA4FF47A752B46012234
:1003700069460C4800F0A2FE2B46012201A909485B
:1003800000F0F2FD01221021204600F0FFF99DF857
:100390000400C00700D002207CBD00000500000062
:1003A000000801403805002038B50CA00C4C00684E
:1003B000009000221021204600F0E8F94FF47A73F3
:1003C00002226946074800F079FE012210212046EA
:1003D00000F0DCF9BDE83840FFF7BCBF66990000CB
:1003E0000008014038050020F8B5054603208DF8C7
:1003F0000000080C8DF80100080A8DF80200104F6B
:1004000014468DF8031000221021384600F0BEF982
:100410004FF47A763346042269460A4800F04EFECD
:10042000A2B233462946074800F09EFD08B10120DC
:10043000F8BD01221021384600F0A8F90020F8BDCF
:100440000008014038050020F8B504460EA00F4D05
:100450000068009000221021284600F097F94FF420
:100460007A76334604226946094800F027FE33466F
:1004700002222146064800F077FD0122102128467D
:1004800000F084F9F8BD0000900000000008014071
:10049000380500202DE9F84F16460C46834600F03B
:1004A0007BF98246002001E000F58070A042FBD974
:1004B000051BB54200D9354604EB0609244F4FF021
:1004C00002084FF47A7600BF8DF80080200C8DF87A
:1004D0000100200A8DF802008DF8034000F03CF87E
:1004E00000221021384600F051F9334604226946B3
:1004F000184800F0E3FD30B9AAB233465946154812
:1005000000F0DCFD10B10120BDE8F88F01221021C0
:10051000384600F03BF900BFFFF71CFF0228FBD074
:1005200000F03AF9A0EB0A00B04201D90320EBE752
:100530002C4404F58070AB44484502D9A9EB04056E
:1005400001E04FF480754C45BED30020DCE700008D
:100550000008014038050020F8B513A0006800909D
:1005600000F01AF9114E044600221021304600F026
:100570000DF94FF47A752B46012269460C4800F0BC
:100580009DFD01221021304600F000F9FFF7E2FE48
:100590000228FBD000F000F9001BA84201D903207B
:1005A000F8BD0020F8BD0000060000000008014072
:1005B00038050020FEE7704772B6FEE72DE9F84FD8
:1005C000DFF89C910024A9F1040B23460F2709F1C1
:1005D000040AABF1040EBBE00125A5402A40AA4263
:1005E00076D1DFF880C14E68A6EB0C0866452BD0AB
:1005F0000DDC032E34D005DC36B3012E19D0022ECB
:100600002FD11BE0112E16D0122E2AD119E0B8F5E9
:10061000881F19D006DCB8F5803F15D0B8F5801FCB
:100620001FD111E0B8F5001F0ED0B8F5041F18D186
:100630000AE0CB6815E0CB681B1D12E0CB680833DD
:100640000FE0CB680C330CE08B682BB1012B4FF023
:10065000080303D0456104E0042302E0056100E0E3
:100660000023FF2A01D8064601E000F104064FEA04
:10067000840501D9A5F12005D6F8008007FA05FC0C
:1006800028EA0C0803FA05F548EA0508C6F80080D0
:100690004D68ED005BD5344DAE6946F00106AE61A4
:1006A000AD6924F0030605F0010500952F4D06EB1A
:1006B000050CDCF80850A607360F07FA06F825EAFD
:1006C0000805DFF8AC80404503D14FF0000810E08A
:1006D0003DE0DFF8A080404502D14FF0010808E07E
:1006E000DFF89480404502D14FF0020801E04FF05E
:1006F000030808FA06F848EA0508CCF808804D68AF
:10070000D9F80060ED024D4601D5164300E096434E
:100710002E604D68DAF80060AD02554601D51643EB
:1007200000E096432E604D68DBF80060AD035D4647
:1007300001D5164300E096432E604D68DEF8006058
:10074000ED03754601D5164300E096432E60641C08
:100750000A6832FA04F57FF43FAFBDE8F88F000075
:100760000804014000001110001002400000014088
:1007700000080140000C014000100140C26821EA5D
:1007800002030A4043EA0241016170470AB1016174
:1007900070470904FBE700000148806870470000CB
:1007A0001800002002488168027811448160704777
:1007B00018000020074810B5016841F010010160E1
:1007C000032000F0A1F80F2000F006F800F04AF82E
:1007D000002010BD0020024030B505461C4887B0FF
:1007E000816941F400618161806906A900F40060BB
:1007F000009001A800F030F900F05EF91549164AA2
:10080000B0FBF1F11548491E0260416040F2E73249
:100810000021C0E903218160816100F0FCFD04003A
:1008200012D10E4800F026FE04000DD1192000F070
:100830003DF8102D07D200222946192000F044F877
:100840000748056000E0012407B0204630BD0000E5
:100850000010024040420F00002C0140D80500204B
:100860001C0000200F4808B5816941F00101816139
:10087000816901F001010091C16941F08051C161BC
:10088000C069002200F0805000900F21901E00F0FF
:100890001BF80548416821F0E06141F000714160BA
:1008A00008BD00000010024000000140002809DBE4
:1008B00000F01F02012191404009800000F1E0207A
:1008C000C0F8001170470000F0B40E4B1B680C46D6
:1008D000C3F30223C3F10705042D00D90425191D14
:1008E000072901D2002300E0DB1E012606FA05F1EC
:1008F000491E214099409E40761E16403143F0BC6F
:1009000001F046BA0CED00E0064900F00702086865
:100910004FF6FF03184040EA0220034A10430860E4
:10092000704700000CED00E00000FA052DE9F047EB
:100930000F46050061D0434E306800F00700B84212
:1009400009D2306820F0070038433060306800F08A
:100950000700B84251D128683B4C810712D54007A7
:1009600003D5606840F4E06060602878000703D534
:10097000606840F4605060606068A96820F0F00032
:10098000084360602878C00728D06868012810D024
:100990002168022810D0890700292EDA616821F029
:1009A000030101436160FFF7F7FE804641F2883999
:1009B0000DE021688903EFE78901EDE7FFF7ECFE21
:1009C000A0EB0801494502D90320BDE8F087606823
:1009D000696800F00C00B0EB810FEFD1306800F0D7
:1009E0000700B8420BD9306820F007003843306068
:1009F000306800F00700B84201D00120E5E7287810
:100A0000400705D56068E96820F4E060084360604D
:100A10002878000706D56068296920F4605040EA0C
:100A2000C100606000F058F86168084AC1F3031122
:100A3000515CC8400649086006480068FFF7CCFED4
:100A40000020C2E700200240001002405236000899
:100A5000240000201C0000200F2202600C4A536872
:100A600003F003034360536803F0F00383605368AB
:100A700003F4E063C36052684FF4E06303EAD20218
:100A800002610448006800F0070008607047000039
:100A900000100240002002400448054900684968EF
:100AA000044AC1F30221515CC84070472400002071
:100AB0000010024062360008044805490068496891
:100AC000044AC1F3C221515CC84070472400002091
:100AD00000100240623600080E4A51680E4801F0CC
:100AE0000C03042B11D0082B0FD10C48C1F3834306
:100AF000C903C05C0AD55168084AC1F34041921E3F
:100B0000515C054A5043B0FBF1F07047044948433B
:100B1000704700000010024000127A0042360008C0
:100B200000093D002DE9F84F040070D02078C04D39
:100B3000C00749D06868C0F38100012807D0686801
:100B4000C0F38100022809D16868C00306D528686F
:100B5000800339D560680028E7D035E06068B0F5DB
:100B6000803F0BD010B1B0F5A02F11D0286820F431
:100B700080302860286820F4802002E0286840F453
:100B800080302860606890B1FFF706FE06460AE0F4
:100B9000286840F480202860F0E700BFFFF7FCFDE4
:100BA000801B642873D828688003F7D50CE0FFF712
:100BB000F3FD064605E000BFFFF7EEFD801B64284D
:100BC000F0D828688003F7D420789A4E80074FF039
:100BD00001094FF0000839D5686810F00C0F07D0F4
:100BE0006868C0F38100022809D16868C00306D490
:100BF0002868800714D52069012808D110E02069F1
:100C0000B0B1C6F80090FFF7C7FD074605E00AE15E
:100C1000FFF7C2FDC01B0228C4D828688007F7D59B
:100C20002868616920F0F80040EAC10028600DE002
:100C3000C6F80080FFF7B0FD074604E0FFF7ACFD03
:100C4000C01B022823D828688007F7D42078000723
:100C50002CD57948A169D9B1C0F80090FFF79CFD67
:100C6000074604E0FFF798FDC01B02280FD8686A0A
:100C70008007F7D571484FF4FA510068B0FBF1F0E6
:100C8000009000BF0098411E0091FAD20EE080E073
:100C9000C0F80080FFF780FD074604E0FFF77CFD09
:100CA000C01B022875D8686A8007F7D420784007EF
:100CB00060D5E8690027C00008D4E86940F080509A
:100CC000E861E869012700F0805000905C48016805
:100CD000C90513D40168834641F480710160FFF7B0
:100CE0005BFD824606E000BFFFF756FDA0EB0A0061
:100CF00064284ED8DBF80000C005F5D5E06801286F
:100D00000AD008B1052813D0286A20F00100286213
:100D1000286A20F0040002E0286A40F001002862FE
:100D2000E06841F2883B98B1FFF736FD82460BE060
:100D3000286A40F004002862EEE700BFFFF72CFDB0
:100D4000A0EB0A0159455AD8286A8007F6D50CE06D
:100D5000FFF722FD824605E0FFF71EFDA0EB0A012A
:100D600059454CD8286A8007F6D41FB1E86920F0AD
:100D70008050E861E06988B36968C1F381010229A4
:100D800044D00228C6F8608004D0FFF705FD044671
:100D900038E034E0FFF700FD074604E0FFF7FCFC15
:100DA000C01B02282BD828688001F7D4206AB0F530
:100DB000803F05D16868A16820F40030084368606E
:100DC000D4E908010843696821F474110843686094
:100DD000C6F86090FFF7E0FC044606E025E000BF9F
:100DE000FFF7DAFC001B022809D828688001F7D534
:100DF0001BE000BFFFF7D0FC001B022802D9032034
:100E0000BDE8F88F28688001F4D40EE00128F7D0FF
:100E10006868226A00F48031914204D1616A00F46A
:100E20007010884201D00120EAE70020E8E70000C6
:100E30000010024000004242800442422400002090
:100E40000070004070B5040009D0606A002540B110
:100E500025616561A56294F8510040B10CE0012064
:100E600070BD6068B0F5827FF4D0E561F2E784F888
:100E70005050204600F040F8022084F851002068CD
:100E8000016821F040010160A088218900F482708E
:100E900001F404410843A18901F400610843217C65
:100EA00001F002010843217D01F001010843218B7B
:100EB00001F400710843217F01F03801084394F8E0
:100EC000201001F080010843218D01F400510843F6
:100ED00021680860A069042101EA10402168486087
:100EE0002068C16921F40061C1616565012084F851
:100EF0005100002070BD000030B585B00024009482
:100F000001940294039400681449884223D1144840
:100F1000816941F480518161816901F480510491BA
:100F2000816941F00401816180690E4D00F0040087
:100F30000490A020009002200190032003906946B5
:100F40002846FFF73BFB4020CDE9000469462846D0
:100F50000294FFF733FB05B030BD000000300140C4
:100F600000100240000801402DE9F84F044690F8B7
:100F700051001D4616460F46012838D160684FF0D3
:100F80000408B0F5827F01D1A06830B3FFF704FCFC
:100F90008246002F75D0002E73D094F8500001289F
:100FA00025D04FF0010984F8509084F851804FF01B
:100FB0000008C4F85480A763A687E687C4F8308089
:100FC000A4F83480A4F83680C4F84080C4F8448083
:100FD000A068B0F5004F0CD015E084F85180009364
:100FE00013460A46204600F01CF9BDE8F88F02209F
:100FF000FBE72068016821F040010160206801687A
:1010000021F48041016020680168490603D4016829
:1010100041F040010160E068C0B134E020688168BF
:10102000C90709D0007BA16B0870A06B401CA063AE
:10103000E08F401EE08709E0FFF7AEFBA0EB0A005F
:10104000A84202D3681C01D032E085B3E08F0028AB
:10105000E4D11BE020688168C90709D0C068A16B92
:101060000880A06B801CA063E08F401EE0870AE030
:10107000FFF792FBA0EB0A00A84203D3681C02D042
:1010800016E012E09DB1E08F0028E3D152462946D8
:10109000204600F037FC08B12020606584F85190AC
:1010A00084F85080606D00289FD001209DE7FFE705
:1010B00084F8519084F85080032096E72DE9F84F8A
:1010C000984616468A460446FFF766FB814694F822
:1010D000510001281ED1BAF1000F73D0002E71D03B
:1010E00094F85000012815D0012784F8507003208F
:1010F00084F8510000256565C4F830A0A686E68610
:10110000A563A587E58765642564A068B0F5004FF1
:1011100003D00CE00220BDE8F88F2068016821F0C0
:10112000400101602068016841F48041016020684D
:101130000168490603D4016841F040010160E0689C
:10114000B0F5006F606803D048B3012E27D047E0A8
:1011500008B1012E1FD1206B21680088C86006E00D
:1011600020688168890709D5216B0988C160206BD7
:10117000801C2063E08E401EE0860CE0FFF70CFB35
:10118000A0EB0901414503D3B8F1FF3F03D035E09F
:10119000B8F1000F32D0E08E0028E1D123E0206BBF
:1011A00021680078087306E02068816889070AD5FD
:1011B000216B09780173206B401C2063E08E401E78
:1011C000E0860DE02BE0FFF7E7FAA0EB09014145CF
:1011D00003D3B8F1FF3F03D010E0B8F1000F0DD0FA
:1011E000E08E0028E0D14A464146204600F0B8FB98
:1011F00008B120206065A06830B109E084F8517022
:1012000084F85050032086E72068C1688068009009
:1012100084F8517004F8505F60680028F3D0012012
:1012200079E72DE9FF4F81B01D46934604464FF004
:1012300001090E9EFFF7B0FA074694F85100616865
:10124000012806D0B1F5827F3CD1A168C9BB042832
:1012500038D10298002871D0BBF1000FFBD0002DCF
:10126000F9D094F8500001282CD04FF0010A84F8EE
:1012700050A094F85100042802D0052084F85100B1
:101280004FF00008C4F85480C4F838B0E587A5874B
:1012900002992163E586A586C4F84080C4F844809D
:1012A00020680168490603D4016841F040010160EB
:1012B000E068B0F5006F606808D0F0B3012D49D048
:1012C00081E0FFE7022005B0BDE8F08F08B1012DF5
:1012D00039D1206B21680088C860206B801C206396
:1012E000E08E401EE0862EE02068816889070FD5D9
:1012F000E18E69B1B9F1010F0AD1216B0988C16092
:10130000206B801C2063E08E401EE0864FF00009B9
:1013100020688168C9070CD0E18F51B1C068A16B0A
:101320000880A06B801CA063E08F401EE0874FF018
:101330000109FFF731FAC01B01E00BE067E0B042A2
:1013400001D3701C50D1E08E0028CDD1E08F002851
:10135000CAD13EE0206B216800780873206B401CE6
:101360002063E08E401EE0862DE0206881688907BA
:101370000FD5E18E69B1B9F1010F0AD1216B09785E
:101380000173206B401C2063E08E401EE0864FF00E
:10139000000920688168C9070CD0E18F51B1C0688D
:1013A000A16B0870A06B401CA063E08F401EE0871B
:1013B0004FF00109FFF7F0F9C01BB04202D3701CD7
:1013C00001D011E086B1E08E0028CED1E08F002858
:1013D000CBD13A463146204600F0C2FA50B1202027
:1013E000606584F8508012E084F851A084F8508041
:1013F000032068E7A06818B92068C1688068009079
:1014000084F851A084F85080606D0028F1D001204C
:1014100059E77047704710B5040003D094F83D00B9
:1014200010B107E0012010BD002084F83C002046E8
:1014300000F01EF8022084F83D00211D206800F015
:101440008FFB012084F8460084F83E0084F83F00BA
:1014500084F8400084F8410084F8420084F8430096
:1014600084F8440084F8450084F83D00002010BD55
:101470007047000090F83D10012901D0012070470D
:10148000022180F83D100168CA6842F00102CA607A
:1014900000680A49884205D0B0F1804F02D008495F
:1014A000884204D1816801F00701062903D0016850
:1014B00041F001010160002070470000002C014054
:1014C0000004004070472DE9F04104460068C668FA
:1014D00005694FF00007A90713D5B10711D5F91E0B
:1014E000016101202077206880698007204602D0B2
:1014F000FFF7E8FF04E000F07EF8204600F07CF8FB
:101500002777680716D5700714D521686FF0040097
:101510000861022020772068806910F4407F20460F
:1015200002D0FFF7CFFF04E000F065F8204600F09E
:1015300063F82777280715D5300713D521686FF092
:1015400008000861042020772068C06980072046D1
:1015500002D0FFF7B7FF04E000F04DF8204600F09E
:101560004BF82777E80616D5F00614D521686FF0FA
:1015700010000861082020772068C06910F4407FBF
:10158000204602D0FFF79EFF04E000F034F820462A
:1015900000F032F82777E80708D0F00706D0216876
:1015A0006FF001000861204600F028F8280608D5F1
:1015B000300606D521686FF0800008612046FFF7ED
:1015C00028FF680608D5700606D521686FF0400030
:1015D0000861204600F01CF8A8060AD5B00608D518
:1015E00021686FF0200008612046BDE8F041FFF758
:1015F00011BFBDE8F08170477047000000680349E3
:10160000884201D1FFF7CEB870470000002C01409E
:10161000704770B5040004D094F84100002510B163
:1016200006E0012070BD84F84050204600F024F808
:10163000242084F841002068C16821F40051C16071
:10164000204600F0EBFA2068016921F49041016125
:101650002068416921F02A0141612068C16841F494
:101660000051C1606564202084F8410084F8420084
:101670006563002070BD000030B585B00024009483
:1016800001940294039400681449884224D11448B8
:10169000816941F480418161816901F48041049153
:1016A000816941F00401816180690E4D00F0040000
:1016B00004904FF4007000900220019003200390EA
:1016C00069462846FEF77AFF2815CDE900046946E9
:1016D00028460294FEF772FF05B030BD0038014085
:1016E00000100240000801402DE9F843044690F83C
:1016F0004100984616460D46202802D00220BDE83B
:10170000F88385B17EB100206064212084F8410017
:10171000FFF742F8A6848146E684A0682027B0F54A
:10172000805F02D003E00120E9E7206910B12E4676
:1017300000250EE000260CE08021204600F0CAFAC9
:10174000A8B9C6B116F8010B21684860E08C401EAC
:10175000E084E08C4B464FF00002CDF8008000287A
:10176000EAD14FF04001204600F0B4FA40B184F8CD
:1017700041700320C3E735F8020BC0F30800E3E72C
:1017800084F841700020BAE7FEE7000010B596B07B
:1017900000225021022001F083FB124C1C2212492E
:1017A00020606846FEF71AFD0021684600F0A2FEA0
:1017B0000D4960601C221C3107A8FEF70FFD0021B7
:1017C00007A800F097FE0849A0601C2238310EA837
:1017D000FEF704FD00210EA800F08CFEE06016B0BC
:1017E00010BD000008000020EC350008F0B585B001
:1017F000002520480095019502950395816941F0E7
:1018000010018161816901F010010491816941F049
:1018100020018161816901F020010491816941F019
:10182000040181618069144E00F004004FF40054FB
:101830000490002221463046FEF7A8FF0F4F0122F8
:1018400010213846FEF7A2FF0220CDE90250009495
:101850000124694601943046FEF7B0FE1020CDE920
:1018600000040320CDE9024069463846FEF7A6FE93
:1018700005B0F0BD0010024000100140000801401A
:10188000104810B50E4901604FF48271416000218B
:101890008160C1604FF400720161C0E9051210223D
:1018A000C0E90721416281620A21C162FFF7CAFAD9
:1018B000002803D0BDE81040FEF77EBE10BD00003A
:1018C00000300140380500200C4810B50A4901607D
:1018D0004FF4E1314160002181600C22C160C0E918
:1018E00004128161C161FFF794FE002803D0BDE8B6
:1018F0001040FEF761BE10BD003801409005002089
:10190000FEE7FEE7F8B5044640684FF4827398425C
:1019100017D1A0684FF48065B0F5004F01D0A84200
:101920000FD12068066826F040060660606898427D
:1019300007D1A068A84204D100920B4600220121E1
:1019400003E000920B4600228021204600F022F89E
:10195000002804D0606D40F0200060650320F8BDD1
:10196000F8B515460E460B460092044601220221A8
:1019700000F010F840B9334600228021204600953F
:1019800000F008F8002804D0606D40F02000606589
:101990000320F8BD2DE9F8431E46914688460446CB
:1019A000089DFEF7F9FE401B351AFEF7F5FE0746C7
:1019B00025480068C0F3CB30684338E0701C37D04E
:1019C000FEF7EAFEC01BA84203D215B1009860B32F
:1019D0002CE02068416821F0E00141606068B0F5CA
:1019E000827F0BD1A068B0F5004F02D0B0F5806FB8
:1019F00004D12068016821F040010160A06AB0F5BF
:101A0000005F09D12068016821F40051016020685D
:101A1000016841F400510160012084F85100002068
:101A200084F850000320BDE8F8830025401E009094
:101A30002068816838EA010004D000214945BDD101
:101A40000020F0E70121F9E724000020012000F048
:101A500045FDFBE74FF47A75DFF84080104C4FF4FA
:101A6000005600BF01F06EFC0746284600F036FD28
:101A700031464046FEF782FE01F064FCC01B82B294
:101A800008A10D4800F070F90CA000F05DF90023EA
:101A90001A460949206801F069FAE3E7001001409D
:101AA000080000207461736B2031202533642020EE
:101AB000636E740D0A000000940200206C656420BF
:101AC000666C6173680A000010B5502080F31188BD
:101AD000BFF34F8FBFF36F8F01F03AFC18B1044989
:101AE0004FF080500860002080F3118810BD000086
:101AF00004ED00E030B58FB028216846FEF787FB83
:101B000014210AA8FEF783FB01210804CDE9001087
:101B10000024029402250491CDE907504FF4E0100F
:101B200009906846FEF7FEFF08B172B6FEE70F2087
:101B3000CDE90A054FF48060CDE90C4002210AA8E6
:101B40000E94FEF7F3FE002801D072B6FEE70FB048
:101B500030BD70470148FFF7B6BC0000D805002033
:101B600070B50268174B184C4FF08046984203D06E
:101B7000B04201D0A04203D122F070054A682A4346
:101B8000984203D0B04201D0A04203D122F4407465
:101B9000CA6822434C6922F08002224302608A68AC
:101BA000C2620A688262984201D109690163012117
:101BB00041610169C90703D0016921F00101016197
:101BC00070BD0000002C01400004004001680C3191
:101BD00051E8002F22F4907241E80023002BF5D148
:101BE0000168143151E8002F22F0010241E800237E
:101BF000002BF5D1016B012909D101680C3151E8A5
:101C0000002F22F0100241E80023002BF5D1202103
:101C100080F84210002101637047000070B504464F
:101C200000680169E26821F44051114301612169B2
:101C3000A0680843616908432168CA6841F20C63DF
:101C40009A430243CA6020684169A26921F4407145
:101C5000114341611E492068884202D1FEF72CFFE2
:101C600001E0FEF719FF00EBC00101EB0012606814
:101C700064218000B2FBF0F3B3FBF1F36FF01806C0
:101C80007343B2FBF0F5B2FBF0F605EB83053223AC
:101C900003EB0515B5FBF1F5B6FBF1F605F0F00524
:101CA00005EB0615B2FBF0F6B2FBF0F0B0FBF1F07D
:101CB0006FF01802504306EB800003EB0010B0FBFE
:101CC000F1F0216800F00F002844886070BD00002A
:101CD000003801402DE9F843984617460D46044662
:101CE000089E24E0701C22D0FEF756FDA0EB0800F1
:101CF000B0421AD8CEB12068C168490717D5802DE7
:101D000015D0402D13D00168C94309070FD40168CD
:101D10000025406800902046FFF758FF08206064C7
:101D200084F840500120BDE8F8830320FBE72068D9
:101D3000006835EA000004D00020B842D2D000206C
:101D4000F1E70120F9E7FEE70FB4054B10B503A951
:101D5000044A029800F03CF810BC5DF814FB000047
:101D60003D220008900000200FB4084B10B504A9D4
:101D700002AA039800F02CF8044602A9002000F003
:101D800058FA204610BC5DF814FB0000332200080E
:101D90000907090E002804DB00F1E02080F8001498
:101DA000704700F00F0000F1E02080F8141D70472C
:101DB00002E008C8121F08C1002AFAD17047704714
:101DC000002001E001C1121F002AFBD17047000072
:101DD0002DE9FF4F8DB00F460546002606E0252869
:101DE0000BD0DDE90F1290476D1C761C2878002877
:101DF000F5D111B03046BDE8F08F0024A246A146CF
:101E00000122EC4900E0044315F8013F203B02FAAF
:101E100003F00842F7D128782A2810D06FF02F025B
:101E20002878A0F13001092914D80AEB8A0102EBC5
:101E3000410144F0020400EB010A6D1CF0E701CF00
:101E40005FEA000A03D544F40054CAF1000A44F0E2
:101E500002046D1C28782E2817D115F8010F44F0C4
:101E600004042A280ED06FF02F022878A0F1300148
:101E700009290AD809EB890102EB410100EB0109AC
:101E80006D1CF2E757F8049B6D1C28786C280FD066
:101E900006DC4C2817D068280DD06A2814D104E03D
:101EA000742810D07A280FD10DE044F400140AE011
:101EB00044F4801401E044F440146978814202D172
:101EC00004F580146D1C6D1C2A786E2A1FD00CDC62
:101ED000632A31D004DC002A8BD0582A11D1A3E028
:101EE000642A68D0692A0CD165E0732A2ED004DCFC
:101EF0006F2A73D0702A04D19BE0752A6FD0782A9C
:101F00006ED01046DDE90F129047761C50E1C4F305
:101F10000250022806D0032809D0042801CF09D096
:101F2000066045E101CFF117C0E9006140E101CF52
:101F300006803DE106703BE117F8040B8DF80000C8
:101F400000208DF80100EB46012003E057F804BBA8
:101F50004FF0FF3061074FF0000102D40DE008F1AF
:101F60000101884649450FDA8045F8DB1BF8081067
:101F70000029F4D108E008F1010188468142FADB2A
:101F80001BF808100029F6D1DDE90F23AAEB0800A1
:101F90008146214600F036F9304400EB080604E0A3
:101FA000DDE90F121BF8010B9047B8F10108F7D2D9
:101FB00021464846F7E00A21C4F302534FF0000BD4
:101FC0000891022B04D001CFC117032B09D00AE0DE
:101FD000FF1D27F00707F7E8020108E032E01FE0E5
:101FE00020E000B2C117042B01D140B2C117031E7B
:101FF00071F1000307DA4FF0000CD0EB0C006CEB32
:1020000001012D2302E0230504D52B238DF8243074
:10201000012303E0E30701D02023F7E7984658E0C7
:102020000A2110E010210EE010204FF0000B089064
:102030000CE010214FF0000B44F004044FF00809AD
:10204000089103E008214FF0000B0891C4F30253FC
:10205000022B04D001CF0021032B06D006E0FF1D88
:1020600027F00707F7E8020103E080B2042B00D154
:10207000C0B24FF0000823072BD5702A07D0DDF837
:1020800020C08CF0100C5CEA0B0C05D00EE0402355
:102090008DF82430012308E050EA010306D03023F4
:1020A0008DF824308DF8252002239846DDF820C0D5
:1020B0008CF0080C5CEA0B0C0BD150EA010301D147
:1020C000630706D530238DF824304FF00108A9F1BD
:1020D0000109582A04D038A20B9208AA0A920BE0F0
:1020E0003AA2F9E75B46089AFEF7A9F80B9B9B5CBE
:1020F0000A9A521E0A92137050EA0102F2D10A980B
:10210000ADEB000000F1200B600702D524F4803411
:1021100001E04FF00109D94502DDA9EB0B0000E019
:10212000002000EB0B0141440890AAEB010AE003F8
:1021300006D4DDE90F232146504600F063F806443B
:102140004FF0000908E009A911F80900DDE90F12B4
:10215000904709F10109761CC145F4DBE0030CD579
:10216000DDE90F232146504600F04CF8064404E018
:10217000DDE90F1230209047761C0899481E089020
:102180000029F5DC08E00A980A990078491C0A91B0
:10219000DDE90F129047761CBBF10001ABF1010B9A
:1021A000F1DC21465046DDE90F2300F019F8064422
:1021B0006D1C1BE6092801003031323334353637C7
:1021C0003839616263646566000000003031323383
:1021D0003435363738394142434445460000000023
:1021E0002DE9F041044600251E461746880404D414
:1021F00005E039462020B0476D1C641EF9D52846FD
:10220000BDE8F0812DE9F041044600251E469046C8
:10221000C80301D5302700E02027880404D505E055
:1022200041463846B0476D1C641EF9D52846BDE8C6
:10223000F0810A68531C0B601070704701B54FF0B5
:10224000FF33012269460248FFF74EFA009808BDA5
:1022500090050020FEF7AEFAFFF74CFCFFF7C6FA38
:10226000FFF732FBFFF70CFB42A0FFF76DFD0022EA
:102270004FF400514548FEF789FAFEF795F84448B7
:10228000FEF7E2F8424C2078EF2801D0012000E070
:1022900000206178162901D0012100E000213C4D89
:1022A00008434FF0000601D03AA00EE040A0FFF72F
:1022B0004BFD6E606868215C42A0FFF745FD6868D1
:1022C000401C68600228F5D340A0FFF73DFD0020C8
:1022D000FEF708F8002844D03DA000BFFFF734FD0A
:1022E0004248344600F580776E6004553E55641CC4
:1022F000FF2CFAD96C604FF48074224600213B48D1
:10230000FEF7C8F800282ED039A000BFFFF71CFD4B
:10231000224600213D48FEF767F8002825D03CA062
:10232000FFF712FD41A0FFF70FFD6E606868395C92
:1023300043A0FFF709FD6868401C6860FF28F5D9D5
:1023400042A0FFF701FD224630492848FDF76AFF09
:1023500068B140A0FFF7F8FCFFF718FA00F0C5F8E5
:10236000FEE744A0BAE749A0D0E74DA0D8E751A0C6
:10237000F0E7000073706920773235717878206556
:1023800078616D706C650D0A00000000001001405E
:1023900000000020736F6D657468696E6720777246
:1023A0006F6E6720696E205374657031200D0A00CE
:1023B00020573235517878204944206973203A20DB
:1023C0000000000030782530325820000D0A00004F
:1023D000736F6D657468696E672077726F6E6720C2
:1023E000696E2053746570320D0A0000940000205D
:1023F000736F6D657468696E672077726F6E6720A2
:10240000696E2053746570330D0A0000940100203A
:10241000736F6D657468696E672077726F6E672081
:10242000696E2053746570340D0A00005153504991
:1024300020526561642044617461203A200D0A00D5
:102440003078253032582020000000000D0A0D0A97
:102450000000000020573235513634465620517561
:10246000616453504920546573742046616C7365F0
:102470000D0A0000205153504920457261736520B8
:10248000426C6F636B204F4B210D0A00205153505B
:1024900049205772697465204F4B210D0A000000D6
:1024A00020515350492052656164206F6B0D0A0D15
:1024B0000A000000205732355136344656205175F7
:1024C00061645350492054657374204F4B0D0A00CA
:1024D00001460020842900D0C81C704710B500B9FF
:1024E000012000F0D1FB002010BD10B500F018FC59
:1024F000002010BD7FB50D4604464169B0F90800C3
:1025000081B1A16971B1FFF7E3FFD4E905128DE84C
:102510000700D4E900102B46226900F0DAFE039090
:1025200004B070BDFFF7D4FF03A9CDE90001208AF4
:102530002B4682B2D4E9001000F09EFE012801D0A3
:102540000020EDE70398EBE794B0064D4FF0FF3421
:1025500022466946286800F0B9FD694602A0FFF7E7
:10256000F3FBF5E7080000207063207072696E7459
:102570002025730A000000002DE9F041184C0F4699
:102580000546E6682068001D00F0B6FA38B92068F4
:1025900090F82C1001208840216981432161681C3A
:1025A00007D137B12168BDE8F0410E48091D00F0A0
:1025B000E7BA20683544B5424560216805D2A06B72
:1025C000BDE8F041091D00F0C3BA606B091D00F0C1
:1025D000BFFAA06A854200D2A562BDE8F081000082
:1025E00028000020FC0600202DE9F041054600F0FF
:1025F000D3FA2E4CA068401CA06020682C4F10B16C
:10260000606940B32DE02560A068012829D100262B
:1026100006EB860007EB800000F08CFA761C072E94
:10262000F6D323488C3000F085FA2148A03000F022
:1026300081FA1F48B43000F07DFA1D48C83000F020
:1026400079FA1B48DC3000F075FA19488C30606369
:102650001430A06305E02068E96AC06A884200D8A7
:102660002560606A401C6062E96A01202269884036
:102670001043206101EB810007EB8000291D00F071
:102680007FFA00F0A9FA606900280CD02068E96A96
:10269000C06A884207D207494FF080500860BFF3F4
:1026A0004F8FBFF36F8FBDE8F0810000280000203E
:1026B0002006002004ED00E030B4026C0B46002A36
:1026C0000BD0C1681144C1608468A14201D3016884
:1026D000C16030BC1846FDF781BD30BC70472DE9A4
:1026E000F041856B174604460026026C82B1C7B1E3
:1026F000E068FDF773FDE168206C091AE16022686B
:10270000914202D2A168081AE060022F16D017E0A9
:102710002068A8B9A06800F081FE06460020A060ED
:102720000EE06068FDF75AFD216C60680844606047
:10273000A168884204D32068606001E005B16D1E85
:102740006D1CA5633046BDE8F08110B5044690F8D5
:10275000510058B101280CD002280FD0502080F32E
:102760001188BFF34F8FBFF36F8FFEE7206B00F030
:1027700047FA2046BDE8104000F042BA10BD000004
:1027800010484FF44061420706D0C01D0D4920F0AB
:102790000700411AC1F540610B4A00230144C2E918
:1027A00000030839183A21F0070111604B600B60F3
:1027B0000B1AC0E9001393604FF000405360506162
:1027C00070470000100700207C000020144E154CBC
:1027D000A6F1C8074FF08058DFF84C9012E000BF18
:1027E00000F0DAF9F068C568281D00F085F9A068E6
:1027F000401EA0606068401E606000F0EDF9284651
:10280000FFF7A3FF60680028EAD138680128F9D9EA
:10281000C9F80080BFF34F8FBFF36F8FF2E700005E
:10282000E80600202800002004ED00E003460098A0
:1028300029B10260C0E90F31012100F053BB0060F3
:10284000F8E72DE9F0479A46DDE9098481466FF003
:102850000303206B03EB82021044089E20F007075D
:10286000780707D0502080F31188BFF34F8FBFF354
:102870006F8FFEE7002561B1002023180A5C83F802
:1028800034200A5C12B1401C1028F6D384F843505F
:1028900001E084F83450072E00D30626E662C4E92E
:1028A0001165201D00F051F904F1180000F04DF9F8
:1028B0002461C6F107006462A061E56484F85050A9
:1028C00052464946384600F005F92060B8F1000F3D
:1028D00001D0C8F80040BDE8F087000030B51149CC
:1028E00000E011460A688242FBD34B685C188442C0
:1028F00003D1406818444860084643681C18944255
:1029000009D1084C183C2468A24209D052681A44E4
:1029100042600A6812680260814200D0086030BDDF
:102920000460F9E77C00002010B5044600F034F99B
:10293000A06B28B15FF0000400F04EF9204610BDF6
:102940000124F9E70648416B096829B1416BC96860
:10295000C9684968816270474FF0FF31FAE70000AB
:102960002800002008484068401C4FF0500080F3C9
:10297000118804D0BFF34F8FBFF36F8FFEE7BFF313
:102980004F8FBFF36F8FFEE7840000202DE9F041E9
:10299000044600F001F994F9455004F1240609E0D9
:1029A000606A48B1304600F085FD08B100F09AF940
:1029B0006D1E6DB2002DF3DC4FF0FF3684F84560DC
:1029C00000F00AF900F0E8F894F9445004F1100717
:1029D00009E0206948B1384600F06CFD08B100F00C
:1029E00081F96D1E6DB2002DF3DC84F84460BDE802
:1029F000F04100F0F1B800002DE9F0410546002754
:102A000000F0C4F9324E306808B9FFF7B9FE7069BA
:102A100005424ED1C5B3083568070ED005F0070052
:102A2000C0F108000544680707D0502080F31188E2
:102A3000BFF34F8FBFF36F8FFEE72DB370688542F2
:102A400037D82348183001460C6801E020460C4670
:102A50006168A94202D221680029F7D131688C420D
:102A600027D007682168016060680837411B10297A
:102A70000FD96019420708D0502080F31188BFF3A6
:102A80004F8FBFF36F8FFEE713E041606560FFF784
:102A900025FF61687068401A7060B268904200D289
:102AA000B060706901430020C4E90001F068401C77
:102AB000F06000F039FD780707D0502080F31188CE
:102AC000BFF34F8FBFF36F8FFEE73846BDE8F0814D
:102AD0006400002010B5031F4FF080741C601B1FA2
:102AE00021F001011960191F024B0B6014394038A5
:102AF0000A6010BD65290008D0E9013201699A60B9
:102B0000D0E901235A604A68824201D182684A6052
:102B1000002202610868401E0860086870470000D3
:102B2000034B036003F1540008608020106070477D
:102B3000E402002000F108014FF0FF32C0E9011269
:102B4000C16001610021016070470021016170478F
:102B500030B50B685A1C02D000F1080202E002698D
:102B600004E02246546825689D42FAD953684B60B8
:102B700099608A60516008610168491C016030BD3C
:102B800042684A6093688B609368596091600861FD
:102B90000168491C01607047502080F31188BFF321
:102BA0004F8FBFF36F8F0A494868401C4860012867
:102BB0000CD10848006810F0FF0F07D0502080F3B8
:102BC0001188BFF34F8FBFF36F8FFEE77047000090
:102BD0008400002004ED00E00849486828B1401E48
:102BE000486001D180F311887047502080F311882C
:102BF000BFF34F8FBFF36F8FFEE70000840000200C
:102C000070B500282AD0164DA0F1080460686969E3
:102C1000084207D1502080F31188BFF34F8FBFF3D4
:102C20006F8FFEE722683AB1502080F31188BFF31E
:102C30004F8FBFF36F8FFEE78843606000F0A6F808
:102C400060686968084468602046FFF747FE2869A5
:102C5000401C2861BDE8704000F066BC70BD0000FB
:102C6000640000204FF0E0200021016181610549EE
:102C70004FF47A720968B1FBF2F1491E41610721F4
:102C8000016170472400002010B5020014D00F48E5
:102C9000006B38B1502080F31188BFF34F8FBFF322
:102CA0006F8FFEE700F072F800211046FFF764FC1A
:102CB00000F03AFC002807D105494FF08050086029
:102CC000BFF34F8FBFF36F8F10BD000028000020AF
:102CD00004ED00E002490A6A0260C9684160704779
:102CE0002800002001490120C86170472800002009
:102CF00010B50C4650B1094909681831FFF728FF93
:102D00002046BDE810400121FFF736BC502080F37B
:102D10001188BFF34F8FBFF36F8FFEE728000020AD
:102D200010B586B00024039405AA04A903A804944E
:102D3000FFF7F6FEDDE903010094CDE90110002361
:102D40000EA11048059A00F0C4FA0F490028C86285
:102D500011D0502080F31188BFF34F8FBFF36F8FD6
:102D60004FF0FF30886201204861CC6006B0BDE8BA
:102D7000104000F041B806B010BD000049444C4579
:102D800000000000CD270008280000200248016B49
:102D9000491C016370470000280000201448016BA3
:102DA00011B10121C16170470021C1610169B1FA0E
:102DB00081F1C1F11F0101EB81020E4951F822306E
:102DC0006BB101EB820101F108034A6852684A6065
:102DD0009A4201D152684A60D16801607047502020
:102DE00080F31188BFF34F8FBFF36F8FFEE70000B2
:102DF00028000020200600201CB5264908780190F4
:102E0000FF20087008788DF800009DF800009DF8FC
:102E1000002000F0F000904207D0502080F311888D
:102E2000BFF34F8FBFF36F8FFEE79DF800001A4C82
:102E300000F0500020700720A06005E09DF8002001
:102E400052008DF80020401E9DF800201206F5D497
:102E5000A060032807D0502080F31188BFF34F8F64
:102E6000BFF36F8FFEE74FF44070A06001980870C9
:102E70000A48016841F470010160016841F0704145
:102E80000160FFF7EFFE00206060FDF74BF90020C6
:102E90001CBD000000E400E08400002020ED00E004
:102EA000F8B517460E46050013D005FB06F048306E
:102EB000FFF7A2FD04000AD0002084F8460004F1C8
:102EC00048023B46314628460094FFF7AFFC2046B7
:102ED000F8BD502080F31188BFF34F8FBFF36F8F81
:102EE000FEE7000070B50D46040025D0FFF754FE44
:102EF000D4E90F20216802FB0011A1600021A16329
:102F0000216861600A46D4E90F01401E00FB0121DF
:102F1000E16021464FF0FF3001F8440F487004F1A2
:102F200010008DB1FFF706FE04F12400FFF702FE4A
:102F3000FFF752FE012070BD502080F31188BFF3CF
:102F40004F8FBFF36F8FFEE721690029F0D000F0AB
:102F5000B1FA0028ECD004494FF080500860BFF36C
:102F60004F8FBFF36F8FE3E704ED00E02DE9FF47DC
:102F700082B01D468A464FF00008040003D0BAF123
:102F8000000F08D011E0502080F31188BFF34F8F5D
:102F9000BFF36F8FFEE7206C38B1502080F31188AB
:102FA000BFF34F8FBFF36F8FFEE7022D0AD1E06BA7
:102FB000012807D0502080F31188BFF34F8FBFF353
:102FC0006F8FFEE700F0B0F93F4F4FF000094FF070
:102FD000805648B9049838B1502080F31188BFF367
:102FE0004F8FBFF36F8FFEE7FFF7D6FDA06BE16B4E
:102FF000884207D3022D05D00498D0B1B8F1000F54
:103000001AD01EE02A4651462046FFF768FB616A47
:1030100019B104F1240000F04DFA20B13E60BFF375
:103020004F8FBFF36F8FFFF7D7FD012006B0BDE8CC
:10303000F087FFF7D1FD22E06846FFF74BFE4FF027
:103040000108FFF7C9FDFFF7A1FEFFF7A5FD94F901
:103050004400401C01D184F8449094F94500401C80
:1030600001D184F84590FFF7B7FD04A9684600F048
:10307000C9F830B12046FFF789FC00F055FA00206E
:10308000D4E7FFF789FDA06BE16B884213D1FFF70E
:10309000A3FD04F110000499FFF72AFE2046FFF774
:1030A00075FC00F041FA00289ED13E60BFF34F8FBF
:1030B000BFF36F8F98E7FFF78FFD2046FFF766FCA1
:1030C00000F032FA90E7000004ED00E02DE9F74748
:1030D000002683B08A46040003D0BAF1000F08D05E
:1030E00011E0502080F31188BFF34F8FBFF36F8F33
:1030F000FEE7206C38B1502080F31188BFF34F8F6A
:10310000BFF36F8FFEE700F00FF9DFF8F4804FF0A8
:1031100000094FF0805748B9059838B1502080F326
:103120001188BFF34F8FBFF36F8FFEE7FFF734FDBA
:10313000A56BC5B151462046FFF7BEFA6D1EA563CB
:10314000206950B104F1100000F0B4F928B1C8F8BA
:103150000070BFF34F8FBFF36F8FFFF73DFD01206E
:1031600006B0BDE8F087059808B11EB106E0FFF78C
:1031700033FD27E06846FFF7ADFD0126FFF72CFD84
:10318000FFF704FEFFF708FD94F94400401C01D14D
:1031900084F8449094F94500401C01D184F845908E
:1031A000FFF71AFD05A9684600F02CF80028204614
:1031B0000AD0FFF7EBFB00F0B7F92046FFF7B4FBAE
:1031C0000028B3D00020CBE7FFF7AEFB90B104F1AD
:1031D00024000599FFF78CFD2046FFF7D7FB00F090
:1031E000A3F90028A2D1C8F80070BFF34F8FBFF336
:1031F0006F8F9BE72046FFF7C9FB00F095F995E735
:1032000004ED00E02DE9F0410C46050011D0C4B1F9
:10321000FFF7C2FC174BDA686E682068911B471CE9
:1032200017D02F681B6A9F4219D0964217D80124E5
:1032300010E0502080F31188BFF34F8FBFF36F8FE2
:10324000FEE7502080F31188BFF34F8FBFF36F8FDD
:10325000FEE70024FFF7C0FC2046BDE8F08188426D
:1032600005D9401A20602846FFF734FDF1E7002019
:103270002060DCE7280000202DE9FF5F8346DDE9C0
:103280000E87994616468A469000FFF7B5FB050063
:103290001CD05420FFF7B0FB040014D0002025639D
:1032A00084F85100CDE90240CDE900874B46324613
:1032B00051465846FFF7C5FA2046FFF795F9012019
:1032C00004B0BDE8F09F2846FFF79AFC4FF0FF30AE
:1032D000F6E7F0B585B0DDE90B640A9DA6B1DCB177
:1032E000542700972663022684F85160002604AF15
:1032F000CDE90246CDE90057FFF7A3FA2046FFF7D4
:1033000073F9049805B0F0BD502080F31188BFF325
:103310004F8FBFF36F8FFEE7502080F31188BFF30C
:103320004F8FBFF36F8FFEE70548416919B1006BFE
:1033300018B100207047012070470220704700003C
:10334000280000200148C0687047000028000020C5
:103350002DE9F0412F4C0026206B28B1A069401CBC
:10336000A0613046BDE8F081E5686D1CE56013D1D1
:10337000606B006838B1502080F31188BFF34F8F25
:10338000BFF36F8FFEE7606BA16B6163A063206A80
:10339000401C2062FFF7D6FAA06ADFF87C808542E5
:1033A00009D3606B0068A0B1606BC068C7687868BB
:1033B000854211D2A0622068C06A00EB800158F8F3
:1033C0002100012800D90126E0690028C9D0012682
:1033D000C7E74FF0FF30EDE7381DFFF78DFBB86A08
:1033E00018B107F11800FFF787FBF96A012022697D
:1033F00088401043206101EB810108EB8100391DF9
:10340000FFF7BEFBF86A2168C96A8842C9D3012662
:10341000C7E70000280000202006002070B5040047
:103420004FF0000140D0214D2868844207D0502041
:1034300080F31188BFF34F8FBFF36F8FFEE7A06C4F
:1034400038B1401EA064636CE26A9A422CD040B14D
:103450002AE0502080F31188BFF34F8FBFF36F8FA6
:10346000FEE7201DFFF748FB114A012150B9E06A31
:1034700000EB800352F8233023B92B6901FA00F0E6
:1034800083432B61606CE062C0F10700A061E06AD9
:103490002B6981401943296100EB800002EB800019
:1034A000211DFFF76DFB0121084670BD280000209B
:1034B000200600202DE9F041C068C468ACB104F1D9
:1034C00018000746FFF718FB154D286B0126A0B121
:1034D00039461448FFF754FBE06A2968C96A8842F4
:1034E0001CD90120EE61BDE8F081502080F31188E5
:1034F000BFF34F8FBFF36F8FFEE7201DFFF7FCFA7E
:10350000E16A2A6906FA01F01043286101EB8100A3
:103510000449B43901EB8000211DDBE70020E2E71C
:1035200028000020D40600202DE9F0472C4D00246F
:103530002746286B38B1FFF72FFB286B401E286306
:10354000286B40B146E0502080F31188BFF34F8FC5
:10355000BFF36F8FFEE7A968224E0120D1B3A6F119
:10356000B40980463068E8B1F068C46804F1180016
:10357000FFF7C2FA201DFFF7BFFAE06A2A6908FACE
:1035800000F11143296100EB800109EB8100211D4D
:10359000FFF7F6FAE06A2968C96A8842E2D3C5F8FB
:1035A0001C80DFE70CB1FFF7CDF9AC6944B14646AA
:1035B000FFF7CEFE00B1EE61641EF9D10020A861D4
:1035C000E86938B10849012738070860BFF34F8F11
:1035D000BFF36F8FFFF700FB3846BDE8F0870000B0
:1035E00028000020D406002004ED00E07836000812
:1035F0004D1A0008000000000000000080000000DC
:1036000000000000000000006C360008551A000899
:10361000000000000000000080000000000000002A
:103620000000000084360008492500080000000062
:10363000000000008000000000000000000000000A
:10364000010202030405060708090A0B0C0D0E0F00
:103650001010000000000000000001020304060733
:103660000809000000000102030400006D795461A4
:10367000736B4C454400000064656661756C74545E
:1036800061736B006D795461736B5072696E740075
:10369000B03600080000002094000000B01D0008B3
:1036A00044370008940000207C160000C01D00086C
:1036B000000000000000000000000000000000000A
:1036C00000000000000000000100000010000000E9
:1036D0000000000000127A0000000000000000005E
:1036E00000000000000000000000000000000000DA
:1036F00000000000000000000000000000000000CA
:1037000000000000000000000000000000000000B9
:1037100000000000000000000000000000000000A9
:103720000000000000000000000000000000000099
:103730000000000000000000AAAAAAAA00000000E1
:043740000000000085
:04000005080000ED02
:00000001FF
