:020000040800F2
:10000000581F0020990100081B17000887150008D9
:100010001917000855070008CD1C00080000000053
:1000200000000000000000000000000001010008C6
:100030009907000800000000450100084D1A00085B
:10004000B3010008B3010008B3010008B3010008C0
:10005000B3010008B3010008B3010008B3010008B0
:10006000B3010008B3010008B3010008B3010008A0
:10007000B3010008B3010008B3010008B301000890
:10008000B3010008B3010008B3010008B301000880
:10009000B3010008B3010008B3010008B301000870
:1000A000B3010008D91A0008B3010008B301000821
:1000B000B3010008B301000800000000B30100080C
:1000C000B30100080000000000000000B3010008B8
:1000D00000000000B3010008B301000800000000A8
:1000E000B3010008B3010008B3010008DFF80CD029
:1000F00000F0A0FA004800474D290008581F0020D2
:10010000224B19680868B0E8F00F80F30988BFF344
:100110006F8F4FF0000080F311884EF00D0E704786
:100120000000000006480068006880F3088862B696
:1001300061B6BFF34F8FBFF36F8F00DF00BF00BF0B
:1001400008ED00E0EFF30980BFF36F8F0F4B1A68E3
:1001500020E9F00F106008B54FF0500080F31188CF
:10016000BFF34F8FBFF36F8F03F05AFB4FF00000C8
:1001700080F31188BDE8084019680868B0E8F00FFE
:1001800080F30988BFF36F8F704700BF2400002001
:10019000EFF3058070470000064880470648004797
:1001A000FEE7FEE7FEE7FEE7FEE7FEE7FEE7FEE727
:1001B000FEE7FEE7D71A0008ED000008202A04DB5E
:1001C000203A21FA02F00021704721FA02F3D040D0
:1001D000C2F12002914008431946704740EA0103EA
:1001E0009B0703D009E008C9121F08C0042AFAD2ED
:1001F00003E011F8013B00F8013B521EF9D27047B1
:10020000D2B201E000F8012B491EFBD27047002258
:10021000F6E710B513460A4604461946FFF7F0FF05
:10022000204610BD034611F8012B00F8012B002ACF
:10023000F9D11846704730B50B4601460020202200
:10024000012409E021FA02F59D4205D303FA02F5E3
:10025000491B04FA02F52844151EA2F10102F1DC43
:1002600030BD2DE9F05F0546002092469B4688464A
:100270000646814640241BE0284641464746224622
:10028000FFF79CFF53465A46C01A914110D31146BE
:100290001846224600F0E0F92D1A67EB01084F4698
:1002A00022460120002100F0D7F917EB00094E414A
:1002B000201EA4F10104DFDC484631462A464346AD
:1002C000BDE8F09F2DE9FE4F804681EA0300C00F94
:1002D0000C46009021F0004123F00045B8EB0200ED
:1002E000A94105D24046214690461C460B4602468F
:1002F00023F00040104347D0270DC7F30A00C3F393
:100300000A510290401A019040286BDAC3F313009F
:1003100040F4801B0098924620B10023D2EB030AE0
:1003200063EB0B0B01985946C0F14002504600F0B8
:1003300093F906460D4650465946019A00F09BF93E
:1003400010EB08006141002487EA115284EAE77348
:100350001A4340D0009A62B3019A012A4FEA075229
:1003600015DC001B61EB02014FF0004202EA07526C
:10037000CDE90042001C41F5801132462B4600F0C9
:100380009BF903B0BDE8F08F40462146F9E7001B1A
:1003900061EB0201001C41F5801300185B4120183D
:1003A000A2F5001747EB030140EAD570B6196D417D
:1003B00011E06D084FEA360645EAC0754FEA07526C
:1003C000001B61EB0201001C41F5801149084FEA56
:1003D00030000019514132462B4603B0BDE8F04FC2
:1003E00000F05BB90098012240000023D0EB02022C
:1003F00063EBE073009821464FEAE074B8EB00002D
:1004000061EB0401E9E783F000435BE781F0004121
:1004100058E72DE9FE4F81EA030404F0004421F07F
:10042000004100944FF0000B23F0004350EA010418
:100430005ED052EA03045BD0C3F30A54C1F30A55F9
:100440002C44A4F2F3340194A0FB0254C1F3130131
:1004500041F48011C3F3130343F4801301FB0244FE
:1004600000FB034E840A970A44EA815447EA835703
:10047000A4FB076802958D0A05FB07854FEA932CBC
:1004800004FB0C542705029D4FEA065847EA16372D
:10049000B5EB08056EEB070C870E920E47EA811745
:1004A00042EA8312A7FB0201B6EB0B0164EB0004E6
:1004B0002B0D43EA0C335E1844EB1C50DA465146D0
:1004C000E7FB0201C5F313044FEA0B3343EA14536D
:1004D0004FEA0432019C43EA0603A4F10C0402949F
:1004E000009CCDE900B400F0E7F803B0BDE8F08F60
:1004F00000200146F9E72DE9F04D81EA030404F0FC
:10050000004B21F0004514464FF0000A23F0004153
:1005100050EA050220D054EA01021DD0C5F30A5763
:100520000246C5F31303C1F31300C1F30A5640F4A6
:10053000801543F48013A7EB0608101BD64608F27B
:10054000FD3873EB050002D308F1010801E09218B1
:100550005B41B8F1000F03DA00200146BDE8F08DE1
:1005600000204FF48011064684460EE0171B73EB03
:10057000050705D3121B63EB050306434CEA010C88
:1005800049084FEA300092185B4150EA0107EDD16B
:1005900052EA030012D082EA040083EA050108430C
:1005A00005D0101BAB4106D20122002306E0002239
:1005B0004FF0004302E06FF0010253101AEB060007
:1005C0004CEB085110EB0A0041EB0B01BDE8F04D7C
:1005D00000F063B8C1F30A52C1F3130140F2FF33D4
:1005E00041F480119A4202DA00200146704740F23D
:1005F00033439A42A2F2334202DC5242FFF7DEBD9D
:1006000000F02AB830B5041E71F1000404DB4FF08D
:100610000044404264EB0101141E73F1000405DB49
:100620001C464FF00043524263EB0403994208BF5B
:10063000904230BD064C074D06E0E06840F00103F3
:1006400094E8070098471034AC42F6D3FFF752FD08
:10065000CC430008EC430008202A04DB203A00FACF
:1006600002F1002070479140C2F1200320FA03F309
:10067000194390407047202A06DBCB17203A41FAF5
:1006800002F043EAE07306E041FA02F3D040C2F11F
:100690002002914008431946704710B5141E73F1AB
:1006A000000408DA401C41F1000192185B411A4332
:1006B00001D120F0010010BD2DE9F04D92469B467E
:1006C00011B1B1FA81F202E0B0FA80F22032904624
:1006D000FFF7C2FF04460F4640EA0A0041EA0B0159
:1006E00053465A46084313D0114653EA010019D025
:1006F000C8F140025046FFF761FD05460E465046E0
:1007000059464246FFF7A8FF084305D0012004E000
:1007100020463946BDE8F08D0020054346EAE076E4
:100720002C4337430A986305E40AA0EB0800002233
:10073000FD0A44EA47540A3002D500200146E9E7A1
:10074000010510196941DDE9084500196941BDE855
:10075000F04DA2E7FEE7000010B506A10C4801F03D
:100760004FFC0C4800235A1E0068BDE810400849A1
:1007700003F078B948656C6C6F2046726565525419
:100780004F53212074696D6572310D0A000000001D
:10079000A400002000000020704772B6FEE70000B1
:1007A0002DE9F84F00240023DFF8B8914FF00F082F
:1007B000A9F1040B09F1040AABF1040ECAE0012708
:1007C000A7403A40BA4275D1DFF89CC14D68A5EB0D
:1007D0000C0665452BD00DDC032D34D005DC35B37C
:1007E000012D19D0022D2FD11BE0112D16D0122D65
:1007F0002AD119E0B6F5881F19D006DCB6F5803F7E
:1008000015D0B6F5801F1FD111E0B6F5001F0ED030
:10081000B6F5041F18D10AE0CB6815E0CB681B1DA4
:1008200012E0CB6808330FE0CB680C330CE08B6828
:1008300023B1012B04D00823476105E0042303E022
:100840000823076100E00023FF2A01D8054601E0E4
:1008500000F1040502D84FEA840603E0A4F108067B
:100860004FEA86062F6808FA06FC27EA0C0703FA07
:1008700006F647EA06072F604D68ED0069D53B4D47
:10088000AE6946F00106AE61AD6905F0010500955F
:10089000374D24F003067719BE68A5072D0F08FA17
:1008A00005FC26EA0C06DFF8CCC0604503D14FF00A
:1008B000000C10E04DE0DFF8C0C0604502D14FF001
:1008C000010C08E0DFF8B4C0604502D14FF0020C23
:1008D00001E04FF0030C0CFA05FC4CEA060CC7F8DB
:1008E00008C04D68ED0205D5D9F800501543C9F888
:1008F000005004E0D9F800509543C9F800504D6805
:10090000AD0205D5DAF800501543CAF8005004E0EE
:10091000DAF800509543CAF800504D68AD0305D58C
:10092000DBF800501543CBF8005004E0DBF8005032
:100930009543CBF800504D68ED0305D5DEF8005027
:100940001543CEF8005004E0DEF800509543CEF891
:100950000050641C0A6832FA04F57FF430AFBDE839
:10096000F88F000008040140000011100010024040
:100970000000014000080140000C0140001001404F
:10098000C26821EA02030A4043EA0241016170475A
:10099000002A01D00161704709040161704700001D
:1009A00001488068704700001400002002488168F8
:1009B00002781144816070471400002010B5074888
:1009C000016841F010010160032000F0A1F80F2040
:1009D00000F006F800F04AF8002010BD00200240A8
:1009E00030B587B005461C48816941F400618161DA
:1009F000806900F40060009001A902A800F044F9A9
:100A000000F076F91549B0FBF1F1491E1548144A7A
:100A1000026040F2E732C2604160002202618260FF
:100A2000826100F0F1FB044694B90E4800F012FC1C
:100A300004466CB9192000F03DF8102D07D20022B1
:100A40002946192000F044F80748056000E0012419
:100A500007B0204630BD00000010024040420F00A9
:100A6000002C01403C0800201800002008B50F4869
:100A7000816941F001018161816901F00101009109
:100A8000C16941F08051C161C06900F0805000909F
:100A900000220F21901E00F01BF80549486820F045
:100AA000E06040F00070486008BD000000100240A7
:100AB00000000140002809DB00F01F0201219140E5
:100AC0004009800000F1E020C0F8001170470000EC
:100AD000F0B40D460D4B1B68C3F30223C3F10704AA
:100AE000042C00D90424191D072901D2002300E099
:100AF000DB1E012606FA04F1491E294099409E405A
:100B0000761E16403143F0BC01F08EBA0CED00E0C9
:100B100000F00701054A10684FF6FF03184040EA4D
:100B20000120034908431060704700000CED00E00D
:100B30000000FA052DE9F04704460D46002C17D0B9
:100B4000DFF83081D8F8000000F00700A84211D289
:100B5000D8F8000020F007002843C8F80000D8F8B3
:100B6000000000F00700A84204D00120BDE8F08793
:100B70000120FBE72068404E810712D5400703D5CE
:100B8000706840F4E06070602078000703D57068FA
:100B900040F4605070607068A16820F0F000084375
:100BA00070602078C0072CD06068012806D0022829
:100BB00009D0316889070BD40120D7E73168890350
:100BC00006D40120D2E73168890101D40120CDE7A4
:100BD000716821F0030101437160FFF7E1FE0746F0
:100BE00041F2883906E0FFF7DBFEC01B484501D91A
:100BF0000320BBE77068616800F00C00B0EB810F68
:100C0000F1D1D8F8000000F00700A8420ED9D8F8BA
:100C1000000020F007002843C8F80000D8F80000C2
:100C200000F00700A84201D001209FE7207840078C
:100C300005D57068E16820F4E060084370602078B2
:100C4000000706D57068216920F4605040EAC100B1
:100C5000706000F05DF87168084AC1F30311515CDF
:100C6000C8400749086007480068FFF7B9FE002040
:100C70007CE7000000200240001002407E43000894
:100C800020000020180000200F2202600B4A536849
:100C900003F003034360536803F0F0038360536879
:100CA00003F4E063C360526802F46052D208026148
:100CB0000348006800F00700086070470010024019
:100CC000002002400148006870470000200000201A
:100CD00000B5FFF7F7FF04494968044AC1F3022150
:100CE000515CC84000BD0000001002408E43000867
:100CF00000B5FFF7E7FF04494968044AC1F3C22180
:100D0000515CC84000BD0000001002408E43000846
:100D10000E4B59680E4801F00C02042A11D0082A23
:100D20000FD10C48C1F38342805CC9030AD55968CE
:100D3000084AC1F34041921E515C054A5043B0FB42
:100D4000F1F070470449484370470000001002402A
:100D500000127A006E43000800093D002DE9F84FAB
:100D60000446002C0ED02078D94DC0075ED06868AC
:100D7000C0F3810001280BD06868C0F3810002280D
:100D800003D00CE00120BDE8F88F6868C00306D5E9
:100D9000286880034AD56068A8BB0120F3E7606833
:100DA000B0F5803F11D0A8B1B0F5A02F1BD02868B6
:100DB00020F480302860286820F480202860606853
:100DC00030B3FFF7EDFD06461EE0286840F48030A2
:100DD0002860F4E7286820F480302860286820F430
:100DE00080202860EBE7286840F48020286028688D
:100DF00040F480302860E2E7FFF7D2FD801B6428D2
:100E000002D90320BFE711E028688003F4D50DE084
:100E1000FFF7C6FD064606E0FFF7C2FD801B64280B
:100E200001D90320AFE728688003F5D42078DFF8E4
:100E3000A48280074FF0010A4FF0000945D5686889
:100E400010F00C0F07D06868C0F38100022812D19F
:100E50006868C0030FD42868800704D5206901287A
:100E600001D001208FE72868616920F0F80040EA8E
:100E7000C100286029E02069B8B1C8F800A0FFF7D8
:100E80008FFD064606E0FFF78BFD801B022801D987
:100E9000032078E728688007F5D52868616920F085
:100EA000F80040EAC10028600FE0C8F80090FFF7A2
:100EB00077FD064606E0FFF773FD801B022801D987
:100EC000032060E728688007F5D42078000726D53E
:100ED0008148A16999B1C0F800A0FFF761FD0646FD
:100EE00006E0FFF75DFD801B022801D903204AE7D9
:100EF000686A8007F5D5012000F010FC0FE0C0F80B
:100F00000090FFF74DFD064606E0FFF749FD801B08
:100F1000022801D9032036E7686A8007F5D42078D3
:100F2000400773D50026E869C00008D4E86940F09E
:100F30008050E861E86900F0805000900126DFF8F9
:100F40009CB1DBF80000C00514D4DBF8000040F4CD
:100F50008070CBF80000FFF723FD074606E0FFF79F
:100F60001FFDC01B642801D903200CE7DBF800003B
:100F7000C005F4D5E068012812D0B0B105281DD015
:100F8000286A20F001002862286A20F00400286204
:100F9000E06841F2883B28B3FFF702FD07461DE0F9
:100FA000286A40F001002862F2E7286A20F0010078
:100FB0002862286A20F004002862E9E7286A40F0E5
:100FC00004002862286A40F001002862E0E7FFF789
:100FD000E7FCC01B584501D90320D4E6286A8007E6
:100FE000F5D50DE0FFF7DCFC074606E0FFF7D8FC7F
:100FF000C01B584501D90320C5E6286A8007F5D4EF
:10100000012E03D1E86920F08050E861E069A0B3C7
:101010006968C1F38101022946D0022805D0C8F8C9
:101020006090FFF7BDFC04463AE0C8F86090FFF717
:10103000B7FC064606E0FFF7B3FC801B022801D987
:101040000320A0E628688001F5D4206AB0F5803F2F
:1010500005D16868A16820F4003008436860D4E9CD
:1010600008010843696821F4741108436860C8F8EE
:1010700060A0FFF795FC044607E026E0FFF790FC30
:10108000001B022801D903207DE628688001F5D5E0
:101090001BE0FFF785FC001B022801D9032072E644
:1010A00028688001F5D410E001280CD06868226A15
:1010B00000F48031914204D1616A00F470108842DA
:1010C00003D001205FE601205DE600205BE6000022
:1010D0000010024000004242800442420070004082
:1010E00070B50446002C09D0606A002540B1256126
:1010F0006561A56294F8510040B10CE0012070BD1B
:101100006068B0F5827FF4D0E561F2E784F8505072
:10111000204600F03FF8022084F851002068016862
:1011200021F040010160A088218900F4827001F45F
:1011300004410843A18901F400610843217C01F0C6
:1011400002010843217D01F001010843218B01F4D4
:1011500000710843217F01F03801084394F8201002
:1011600001F080010843218D01F4005108432168FA
:101170000860A069042101EA1040216848602068E5
:10118000C16921F40061C1616565012084F85100E5
:10119000002070BD30B585B0002401940294039402
:1011A000049400681449884223D11448816941F4A9
:1011B00080518161816901F480510091816941F020
:1011C00004018161806900F004000090A02001907A
:1011D0000220029003200490094D01A92846FFF740
:1011E000DFFA402101910294039401A92846FFF7F8
:1011F000D7FA05B030BD00000030014000100240B9
:10120000000801407047704710B50446002C03D019
:1012100094F83D0010B107E0012010BD002084F8D3
:101220003C00204600F015F8022084F83D00211D06
:10123000206800F057FC01203D3460726070A0709F
:10124000E07020716071A071E07120722070002048
:1012500010BD704790F83D10012901D00120704762
:10126000022180F83D100168CA6842F00102CA609C
:1012700000680C49884205D0B0F1804F02D00A497D
:10128000884209D1816801F00701062908D0016868
:1012900041F00101016003E0016841F001010160DA
:1012A00000207047002C01400004004070472DE9E9
:1012B000F04104462068C56806694FF00007B10791
:1012C00014D5A90712D5F91E0161012020772068E5
:1012D0008069800703D02046FFF7E8FF05E020463D
:1012E00000F081F8204600F07FF82777700717D5C7
:1012F000680715D521686FF0040008610220207787
:101300002068806910F4407F03D02046FFF7CEFFAD
:1013100005E0204600F067F8204600F065F82777E2
:10132000300716D5280714D521686FF0080008612A
:10133000042020772068C069800703D02046FFF78B
:10134000B5FF05E0204600F04EF8204600F04CF8CE
:101350002777F00617D5E80615D521686FF010003D
:101360000861082020772068C06910F4407F03D00E
:101370002046FFF79BFF05E0204600F034F82046AA
:1013800000F032F82777F00708D0E80706D0216888
:101390006FF001000861204600F028F8300608D5FB
:1013A000280606D521686FF0800008612046FFF707
:1013B00029FF700608D5680606D521686FF0400041
:1013C0000861204600F01CF8B0060AD5A80608D52A
:1013D00021686FF0200008612046BDE8F041FFF76A
:1013E00012BFBDE8F08170477047000000680349F4
:1013F000884201D1FFF7DABA70470000002C0140A3
:10140000704770B50446002C04D094F841000025C4
:1014100010B106E0012070BD84F84050204600F075
:1014200023F8242084F841002068C16821F4005189
:10143000C160204600F0B4FB2068016921F49041AE
:1014400001612068416921F02A0141612068C16879
:1014500041F40051C1606564202084F8410084F8A3
:1014600042006563002070BD30B585B00024019452
:1014700002940394049400681449884224D11448C7
:10148000816941F480418161816901F48041009169
:10149000816941F004018161806900F004000090DD
:1014A0004FF4007001900220029003200490094D37
:1014B00001A92846FFF774F92915019102940394B4
:1014C00001A92846FFF76CF905B030BD003801408E
:1014D00000100240000801402DE9F84304460E4682
:1014E00015461F4694F84100202802D00220BDE88E
:1014F000F8837EB175B100206064212084F841003A
:10150000FFF74EFA8146A584E584A068B0F5805FB8
:1015100002D003E00120EAE7206920B13546002629
:101520004FF0200815E00025FAE74B460022802105
:101530002046009700F090FB18B184F8418003200A
:10154000D5E7ADB1216815F8010B4860E08C401E6D
:10155000E084E08C0028E8D14B4600224021204660
:10156000009700F079FB50B184F841800320BEE77A
:1015700036F8020B2168C0F308004860E6E784F8FB
:1015800041800020B3E7FEE710B598B0002250215B
:10159000022002F0C9F9194C2060194803C8CDE9AE
:1015A00016010022012116A801F030FA20614FF443
:1015B0007A7101F049FA1C22114908310FA8FEF78F
:1015C0000DFE00210FA801F0F4F9A0601C220C49C7
:1015D000243108A8FEF702FE002108A801F0E9F96D
:1015E000E0601C220649403101A8FEF7F7FD00210A
:1015F00001A801F0DEF9606018B010BD0000002005
:1016000010430008F0B585B00024019402940394BF
:1016100004941E48816941F010018161816901F0E3
:1016200010010091816941F020018161816901F01F
:1016300020010091816941F004018161806900F01D
:1016400004000090124F4FF40055002229463846FE
:10165000FFF79EF90F4E012210213046FFF798F94F
:1016600001950125029503940220049001A93846B2
:10167000FFF796F81020019002950395032004903F
:1016800001A93046FFF78CF805B0F0BD001002400C
:10169000001001400008014010B510480E490160DB
:1016A0004FF48271416000218160C160016141613C
:1016B0004FF4007282611022C26101624162816254
:1016C0000A21C162FFF70CFD002803D0BDE81040DD
:1016D000FFF763B810BD0000003001409C070020F8
:1016E00010B50C480A4901604FF4E1314160002116
:1016F0008160C16001610C2242618161C161FFF7BB
:1017000080FE002803D0BDE81040FFF746B810BDAA
:1017100000380140F4070020FEE7FEE708B507495E
:101720004FF4FA520968B1FBF2F14143009100BF56
:101730000098411E0091FAD208BD00002000002050
:1017400000F0C6BA2DE9F04105460E4617460A4894
:101750000078002801D100F0BBFAEFF311842023B8
:1017600083F311883A463146284600F007F8E1B283
:1017700081F31188BDE8F0819C16002070B50E46FB
:101780001446184900EB400001EBC00518356869A4
:10179000002806D0012811D002281BD000242046A2
:1017A00070BD284600F0C8FAA04201D20024F6E736
:1017B00022463146284600F0F0FBF0E7284600F0CC
:1017C000BBFAA04200D2044622463146284600F029
:1017D000E4FBE4E722463146284600F0B0FB04462D
:1017E000DDE700009C1600200FB408B504A90091A5
:1017F0006A46039900F003F801B05DF814FB2DE987
:10180000F04198B080460C46164603A8139040203D
:10181000149000271597CDF85C80169714F8011BDB
:1018200039B1252917D013A800F06AFB16980028B3
:10183000F4DA169800280ADD159820B103A940466D
:10184000159AFFF77FFFDDE91510084416901698EA
:1018500018B0BDE8F081002101202278232A1ED093
:101860002B2A18D02D2A0ED0302A10D00020002884
:10187000F3D12578A5F130020A2A14D30023227867
:101880002E2A17D023E041F00101641CEFE741F05C
:101890000201641CEBE741F00401641CE7E741F03E
:1018A0000801641CE3E7641C00EB800005EB4000CA
:1018B0003038DEE7641C2578A5F130020A2A06D20A
:1018C000641C03EB830205EB4203303BF3E76C2D12
:1018D0000DD0682D0BD0702D4ED00BDC252D58D09F
:1018E000582D2FD0632D0CD0642D56D112E0641CDE
:1018F0002578ECE7732D31D0752D17D0782D4CD18C
:1019000020E03068011D31600078C1B213A800F0FA
:10191000F7FA42E03268151D35601568CDE900011F
:101920000A22294613A800F013FA36E03268151D82
:1019300035601568CDE900010A22294613A800F098
:1019400073FA2AE03268151D35601568CDE900018B
:101950001022294613A800F067FA1EE03068011D26
:101960003160056815F8011BB9B113A800F0C8FA79
:1019700016980028F6DA10E03068011D3160016821
:101980000820CDE900070346102213A800F04CFA06
:1019900003E0252113A800F0B3FA641C46E70120F8
:1019A00000F0FAFFFBE700004FF47A764FF400579F
:1019B000DFF84C80134D02F0B1FA0446304600F0D7
:1019C000EBFF39464046FEF7DBFF02F0A7FA001BAB
:1019D00082B20DA1114800F013FB11A000F000FB32
:1019E0000E490020FFF700FF10A10020FFF7FCFECA
:1019F00000231A460949286802F034F8DBE70000A2
:101A000000100140000000207461736B203120251C
:101A100033642020636E740D0A000000A4000020CF
:101A20006C656420666C6173680A000048656C6CC4
:101A30006F2C205345474745522052545421206C67
:101A4000656420666C6173680D0A000010B5502053
:101A500080F31188BFF34F8FBFF36F8F02F064FAEA
:101A600018B104494FF080500860002080F31188BD
:101A700010BD000004ED00E030B58FB0282105A8AE
:101A8000FEF7C5FB14216846FEF7C1FB0121059155
:101A90000804069000240794099102250C950D90E6
:101AA0004FF4E0100E9005A8FFF758F908B1FEF7C3
:101AB00074FE0F200090019502944FF48060039013
:101AC000049402216846FFF735F8002801D0FEF79C
:101AD00064FE0FB030BD70470148FFF7E8BB00005F
:101AE0003C08002070B50268174C184D4FF0804636
:101AF000A04203D0B04201D0A84203D122F070032B
:101B00004A681A43A04203D0B04201D0A84203D190
:101B100022F44073CA681A434B6922F080021A43C8
:101B200002608A68C2620A688262A04201D10969C1
:101B30000163012141610169C90703D0016921F0F5
:101B40000101016170BD0000002C01400004004053
:101B500001680C3151E8002F22F4907241E8002313
:101B6000002BF5D10168143151E8002F22F0010259
:101B700041E80023002BF5D1016B012909D101684F
:101B80000C3151E8002F22F0100241E80023002B15
:101B9000F5D1202180F84210002101637047000038
:101BA00070B5044620680169E26821F44051114390
:101BB0000161A16820690143606901432068C2682E
:101BC00041F20C639A430A43C26020684169A269EA
:101BD00021F44071114341611E492068884202D1BD
:101BE000FFF786F801E0FFF773F800EBC00101EBA7
:101BF0000010616864228900B0FBF1F3B3FBF2F3DB
:101C00006FF018067343B0FBF1F5B0FBF1F605EB8E
:101C10008305322303EB0515B5FBF2F5B6FBF2F6AF
:101C200005F0F00505EB0615B0FBF1F6B0FBF1F0A1
:101C3000B0FBF2F06FF01801484306EB800003EBB5
:101C40000010B0FBF2F0216800F00F00284488601B
:101C500070BD0000003801402DE9F84304460D46F0
:101C600017469846089E25E0701C23D0FEF798FE84
:101C7000A0EB0800B0421BD8D6B12068C168490764
:101C800018D5802D16D0402D14D00168C9430907FE
:101C900010D4002521680968406800902046FFF7AD
:101CA00057FF0820606484F840500120BDE8F883A5
:101CB0000320FBE72068006835EA000004D000201C
:101CC000B842D1D00020F1E70120F9E7FEE700009B
:101CD00010B5124C03202061606111A0A06104F1D5
:101CE000A800E0614FF4806020620021A16261627F
:101CF000E1620BA0206604F5956060661020A06686
:101D00002167E166616709A1E01DFEF78BFA08A172
:101D10002046FEF787FA2020A07110BD9C160020F7
:101D20005465726D696E616C00000000525454007D
:101D300053454747455200000169C268914204D8A3
:101D40008068801A0844401E7047881A401E7047F9
:101D50002DE9FC5F0646DDE90C480F4692469946A0
:101D6000C7F1000B002F01DA584600E03846012584
:101D700002E090FBFAF06D1C5045FADAA94500D953
:101D80004D462CB1002F02DB5FEA487000D5641E7F
:101D90005FEA887002D5B9F1000F0FD05FEAC87012
:101DA0000CD144B90AE0641E2021304600F0A8F8A6
:101DB000F068002802DB0CB1A542F4D3F0680028DB
:101DC00030DB002F05DA5F462D21304600F098F811
:101DD00006E05FEA487003D52B21304600F090F80A
:101DE000F06800281EDB08F0030002280FD1B9F1CB
:101DF000000F0CD144B90AE0641E3021304600F0D7
:101E00007FF8F068002802DB0CB1A542F4D3F0683B
:101E1000002807DBCDE900484B465246394630469C
:101E200000F002F8BDE8FC9F2DE9F84F8246DDE99D
:101E30000A4B88461746994640460125012602E08E
:101E4000B0FBF7F0761CB842FAD2B14500D94E4645
:101E50005FEACB7018D1BCB15FEA8B7002D5B9F1E3
:101E6000000F02D0202000900BE03020009008E00E
:101E7000641E5046009900F043F8DAF80C00002880
:101E800002DB0CB1A642F3D3DAF80C0000280CDA1E
:101E9000BDE8F88FA9F1010906E0B8FBF5F0B842FA
:101EA00002D2DFF8589004E07D43B9F1010FF4D974
:101EB000F0E7B8FBF5F000FB158819F80010504664
:101EC00000F01EF8DAF80C00002803DBB5FBF7F58C
:101ED000002DEED15FEACB70DAD04CB9D8E7641EA2
:101EE0002021504600F00CF8DAF80C000028CFDB77
:101EF000002CCDD0A642F2D3CAE7000096430008DA
:101F000010B50446A0686368421C934205D3236859
:101F10001954A260E068401CE060D4E901028242EA
:101F200009D121682069FFF70DFCA168884203D020
:101F30004FF0FF30E06010BD0020A06010BD2DE923
:101F4000F0470546894617464FF00008EC682869B7
:101F5000A04202D9061B761E03E0A968201A0E1AB9
:101F6000761EA868001BB04200D80646BE4200D3C9
:101F70003E466868324620444946FEF72FF9B04491
:101F8000B144BF1B3444A868A04200D10024EC60D7
:101F9000002FDCD14046BDE8F0872DE9F041044632
:101FA00088461646E768A068C51BE1686068B542C8
:101FB000084407D932464146FEF710F9B819E060E7
:101FC000BDE8F0812A464146FEF708F9761B08EB8A
:101FD000050132466068FEF701F9E660F0E70000AF
:101FE0000FB4054B10B503A9044A029800F0FEF89F
:101FF00010BC5DF814FB000025290008A00000209B
:102000000FB4084B10B504A902AA039800F0EEF82B
:10201000044602A9002000F080FC204610BC5DF8B8
:1020200014FB00001B2900080907090E002804DB27
:1020300000F1E02080F80014704700F00F0000F17C
:10204000E02080F8141D704702E008C8121F08C184
:10205000002AFAD170477047002001E001C1121F29
:10206000002AFBD1704700002DE9FF5F82B00021FC
:10207000DDE90430020DDDF840B0034318D044F62A
:102080001050A2F2FF3242431514119801281FD0BC
:10209000A5EB0B00401C5FEA000A4FF000064E4F14
:1020A000DFF83891B046504615D5CAF1000413E068
:1020B000119801244AA3012801D16FEA0B0102986B
:1020C000119AC0E90031C0E9024206B0BDE8F09FB4
:1020D000CBF10000DFE704460021404A491842EBFB
:1020E0000450CDE9001012E0E00707D032463B462D
:1020F00040464946FEF78DF98046894632463B46C2
:1021000010461946FEF785F906460F466410002C66
:10211000EAD1DDE90401DDE90023BAF1000F06DAB6
:10212000FEF777F942464B46FEF773F905E0FEF7F6
:10213000E2F942464B46FEF7DEF904460E4600221F
:10214000284BFEF75FFA03D84FF0FF30014607E057
:102150000022254B20463146FEF7B4F8FEF73AFA46
:10216000102409E0002C0ADB0A220023FEF779F88C
:10217000039B30321A55641E50EA0102F2D1641CEE
:10218000039AC4F111031444119A012A03D00122C5
:1021900008430DD10AE0084304D000204FF0110B92
:1021A000119072E7A3EB0B056D1E0DE05B4504DD9E
:1021B0004FF0000205F1010504E003DA4FF00002E0
:1021C000A5F10105002AECD002981199C0E902316D
:1021D000C0E9004579E70000000014400000F03F2E
:1021E000300000000000F0430000E03F2DE9FF4F09
:1021F00095B09B468946064600250FE2252877D1F3
:1022000000242746F84A0121059400E0044316F80B
:10221000013F203B01FA03F01042F7D130782A2821
:1022200011D06FF02F033078A0F13002092A16D8B0
:10223000059A44F0020402EB820203EB42021044CE
:10224000761C0590EFE759F8042B0592002A03DA73
:10225000504244F40054059044F00204761C307857
:102260002E2816D116F8010F44F004042A280DD0A8
:102270006FF02F023078A0F13003092B09D807EB5B
:10228000870302EB4303C718761CF3E759F8047B76
:10229000761C30786C280FD006DC4C2817D06828C4
:1022A0000DD06A2814D104E0742810D07A280FD1F8
:1022B0000DE044F400140AE044F4801401E044F416
:1022C00040147278824202D104F58014761C761C88
:1022D000307866280BD013DC582877D009DC00282A
:1022E00075D04528F6D04628F4D047281AD19DE16C
:1022F00018E0632835D0642879D0652812D195E19B
:10230000702873D008DC6728F1D069286FD06E2858
:102310000DD06F2806D1B5E073282CD0752875D064
:10232000782874D05A46179990476D1C75E1C4F30C
:102330000250022809D003280DD0D9F80010042833
:102340000DD00D6009F1040967E1D9F80010EA1712
:10235000C1E90052F6E7D9F800100D80F2E70D70E0
:10236000F0E719F8041B8DF8001000208DF801002B
:10237000EA46012003E059F804AB4FF0FF30610753
:102380004FF0000102D40DE008F101018846B94286
:102390000FDA8045F8DB1AF808100029F4D108E0BC
:1023A00008F1010188468142FADB1AF80810002979
:1023B000F6D105985B46A0EB080721463846179AE8
:1023C00000F094FA284400EB080507E04DE029E10D
:1023D0000DE01AF8010B5A4617999047B8F1010819
:1023E000F7D25B4621463846179A13E142E00A22AB
:1023F0000092C4F302524FF0000A022A08D059F8A2
:1024000004CB032A4FEAEC710AD00DE029E02AE060
:1024100009F1070121F00702F2E802C1914609E043
:102420000FFA8CFC4FEAEC71042A03D14FFA8CFCB2
:102430004FEAEC71002907DA0A460021DCF1000CB2
:1024400061EB02012D2202E0220504D52B228DF83A
:102450000420012203E0E20701D02022F7E79046A2
:1024600059E00A2102E010220DE010214FF0000A8D
:1024700000910BE010224FF0000A44F004040827FA
:10248000009203E008224FF0000A0092C4F30252C7
:10249000022A05D059F804CB0021032A08D009E00C
:1024A00009F1070121F00702F2E802C1914605E0B7
:1024B0001FFA8CFC042A01D10CF0FF0C4FF000082D
:1024C000220728D5702806D0009B83F0100353EA1A
:1024D0000A0305D00EE040228DF80420012208E016
:1024E0005CEA010206D030228DF804208DF8050048
:1024F00002229046009B83F0080353EA0A030AD1A4
:102500005CEA010201D1620705D530228DF8042072
:102510004FF001087F1E582804D034A003900EA865
:1025200002900DE036A0F9E753466046009AFDF7A9
:1025300098FE84460398825C0298401E02900270C6
:102540005CEA0100F0D1029806A9081A00F1200AFD
:10255000600702D524F4803400E00127574502DDEE
:10256000A7EB0A0000E0002000EB0A0100900598AC
:102570004144401A0590E00306D45B462146179A71
:10258000059800F0B3F90544002706E001A85A4673
:10259000C05D179990476D1C7F1C4745F6DBE00333
:1025A0000CD55B462146179A059800F09FF9054423
:1025B00004E030205A46179990476D1C0099481E38
:1025C00000900029F5DC08E0029802995A4600784C
:1025D000491C0291179990476D1CBAF10001AAF1AC
:1025E000010AF1DC65E100000928010030313233D5
:1025F000343536373839616263646566000000003F
:102600003031323334353637383941424344454628
:102610000000000000F058F90544761C30780028CE
:102620007FF4ECAD19B02846BDE8F08F620700D406
:10263000062709F1070222F0070CFCE80223E14615
:1026400003F000485FEA080C02D00FF2702C0DE096
:102650005FEA045C02D50FF2682C07E05FEAC47CF5
:1026600002D00FF2602C01E0AFF2700C4FF0FF3897
:1026700023F00043CDF850C065280CD006DC452877
:1026800009D046281DD047283DD13DE0662818D006
:1026900067287ED138E00021112F01DB112000E0F6
:1026A000781CCDE9000106A90EA8FFF7DDFCDDE9E5
:1026B0000F010E9A03910021009207F1010A049183
:1026C0004DE04FF000400097CDE9011006A90EA89B
:1026D000FFF7CAFCDDE90F0203920E9B119900225D
:1026E000DDF80CA00093049211B9791C00EB010AEB
:1026F000B7EB0A0004D4C0F1FF3007F1010A0490DF
:10270000AAEB0700019044E0012F00DA0127002125
:10271000112F01DD112000E03846CDE9000106A9A6
:102720000EA8FFF7A1FCDDE90F010E9A039100212D
:1027300004910092BA4621070CD40399514500DA5E
:102740008A46BAF1010F05DD009AAAF10101515C38
:10275000302908D0B84202DA10F1040F06DA01215C
:10276000CDE9011015E0AAF10101E9E7002805DC37
:10277000049901440491AAEB000102E0411C514577
:1027800000DD8A460499401A401C01904FF0004039
:102790000290200704D40198504501DBCDF8048055
:1027A00000208DF84F0002980DF14F07B0F1004F57
:1027B00025D02B200E9002984FF0020800280CDA4A
:1027C000404202902D200E9007E00A210298FDF76A
:1027D00032FD3031029007F8011DB8F10001A8F177
:1027E0000108F2DC02980028EFD1791E0E980870DB
:1027F000307800F0200040F0450007F8020D12A8E4
:10280000C01B00F107081498007800B1012000EB0C
:102810000A01019801EBE07105984144401A401EFD
:102820000590E00306D45B462146179A059800F010
:102830005DF805441498007818B15A4617999047E6
:102840006D1CE00324D55B462146179A059800F0DD
:102850004DF805441CE00498002807DBDDE903017E
:10286000884203DD0098405C179901E017993020F9
:102870005A469047049805F10105401C04900198C0
:10288000401E019004D12E205A46179990476D1C86
:10289000BAF10001AAF1010ADDDC05E017F8010B2D
:1028A0005A46179990476D1CB8F10001A8F101082C
:1028B000F4DC5B462146179A0598ABE62D00000034
:1028C0002B000000200000002DE9F0410446002507
:1028D0001E461746880404D405E039462020B04738
:1028E0006D1C641EF9D52846BDE8F0812DE9F04144
:1028F000044600251E469046C80301D5302700E057
:102900002027880404D505E041463846B0476D1CB1
:10291000641EF9D52846BDE8F0810A68531C0B6097
:102920001070704701B54FF0FF330122694602482D
:10293000FEF7D2FD009808BDF4070020EFF30580F4
:10294000002801D00120704700207047FEF736F8BC
:10295000FFF792F8FEF756FEFEF7C2FEFEF79CFE6A
:10296000FEF7EEFE04A10020FEF73EFFFEF70CFE90
:1029700000F01AF8FEE7000048454C4C4F20534544
:1029800047474552205254540D0A0000014600208A
:10299000842900D0C81C704710B5002800D1012040
:1029A00000F080FE002010BD10B500F0E9FE002010
:1029B00010BD7FB504460D466169B4F908000029D1
:1029C00010D0A16971B1FFF7E1FFD4E90521CDE98C
:1029D00001210090D4E900102B46226901F062FA2F
:1029E000039010E0FFF7D2FF03A9CDE90001208A90
:1029F0002B4682B2D4E9001001F022FA012802D05D
:102A0000002004B070BD0398FBE700001CB513461E
:102A100005C8002A0BD0CDE90002012905D000220B
:102A2000012108A001F0F2FB1CBD0122F8E7009093
:102A3000012905D00022012102A001F0CDFB1CBD1F
:102A40000122F8E7000000002DE9FC4107460C4692
:102A5000002500260196002C00D10124FFF76EFF0F
:102A6000A8B101AB224609213846009601F01CFCB2
:102A7000012801D0FF2514E0019890B10A494FF0D8
:102A800080500860BFF34F8FBFF36F8F09E00023C2
:102A9000224604213846009601F006FC012800D0A9
:102AA000FF252846BDE8FC8104ED00E094B06D46AA
:102AB0004FF0FF37094E06E0295D09A0FFF790FAB5
:102AC000641C0A2CF8DB3A466946306801F0DCF8F1
:102AD000694604A0FFF784FA0024EDE70000002017
:102AE00025780A007063207072696E742025730A5D
:102AF000000000002DE9F04104460F46174EF5682E
:102B00003068001D00F098FC38B9306890F82C103F
:102B100001208840316981433161601C07D137B1A0
:102B20003168BDE8F041091D0D4800F0D5BC2C44CA
:102B300030684460AC4206D23168B06B091DBDE814
:102B4000F04100F0B1BC3168706B091D00F0ACFCC5
:102B5000B06A844200D2B462BDE8F0812400002053
:102B6000A009002070B5044600F0C2FC1C4DA86806
:102B7000401CA860286810B1686938B10CE02C606E
:102B8000A868012808D100F0B1F905E02868E16AD9
:102B9000C06A884200D82C60686A401C6862E06A9B
:102BA00001212A698140114329610E4900EB80000F
:102BB00001EB8000211D00F08FFC00F0B9FC68697A
:102BC00000280CD02868E16AC06A884207D206490A
:102BD0004FF080500860BFF34F8FBFF36F8F70BD11
:102BE00024000020C408002004ED00E038B500F007
:102BF0007FFC104C2068C8B90F4800F047FC0E4815
:102C0000143000F043FC0C48E060143020610A4BA3
:102C10000020C03B009003F148020C210A2000F084
:102C2000A5FE206010B105A100F006FDBDE838400A
:102C300000F07EBC60000020740A0020546D7251C8
:102C40000000000070B50C4D0C4E11E000F050FC7F
:102C5000F068C468201D00F0EFFBA868401EA86063
:102C60006868401E686000F063FC204600F053F87E
:102C700068680028EAD170BD240000208C0900207B
:102C800030B40B46026C002A0CD0C1681144C160FC
:102C90008468A14201D30168C160C16830BC184694
:102CA000FDF79CBA30BC70472DE9F0410446174649
:102CB0000026A56B226C002A10D0C7B1E068FDF792
:102CC0008DFAE168206C091AE1602268914202D213
:102CD000A168081AE060022F16D017E02068A8B992
:102CE000A06801F089F906460020A0600EE0606847
:102CF000FDF774FA216C606808446060A16888423E
:102D000004D32068606001E005B16D1E6D1CA563F1
:102D10003046BDE8F08110B5044694F85100002813
:102D20000BD0012811D0022814D0502080F3118834
:102D3000BFF34F8FBFF36F8FFEE7206B00F00EFCE9
:102D40002046BDE8104000F009BC2046BDE8104018
:102D500000F004BC10BD00000749CA6811680029D2
:102D600004D00021016019B1002070470121F9E76A
:102D7000D068006870470000600000204FF4406198
:102D80000F48420706D0C01D20F007000C49411A29
:102D9000C1F540610B4A10600023536001440839BB
:102DA00021F00701183A11604B600B600B1A436069
:102DB00001604068906050604FF000405061704783
:102DC0009C0A00208C000020074E4FF08054074DD5
:102DD000FFF738FF30680128FAD92C60BFF34F8F16
:102DE000BFF36F8FF4E70000C408002004ED00E09B
:102DF00003460098002905D00260C36301640121E5
:102E000000F0EABD0060F8E72DE9F0478246DDE911
:102E100008580A9C9946521E206B00EB820020F055
:102E20000706700707D0502080F31188BFF34F8F3B
:102E3000BFF36F8FFEE7002761B1002023180A5C03
:102E400083F834200A5C12B1401C1028F6D384F8B1
:102E5000437001E084F83470072D00D30625E56245
:102E60006564A764201D00F01CFB04F1180000F04D
:102E700018FB2461C5F10700A0616462E76484F86F
:102E800050704A465146304600F0C8FA2060B8F10A
:102E9000000F01D0C8F80040BDE8F0872DE9F047E9
:102EA0000646DDE908940D4617469846002D15D0D4
:102EB000002C11D0FFF79AFE2660A561C4F81C8093
:102EC000C4F82090201D00F0ECFA002F04D014F874
:102ED000240F40F004002070BDE8F087502080F3FC
:102EE0001188BFF34F8FBFF36F8FFEE770B50024DB
:102EF000124D04EB840005EB800000F0C7FA641C5F
:102F0000072CF6D30D488C3000F0C0FA0B48A030E7
:102F100000F0BCFA0948B43000F0B8FA0748C830ED
:102F200000F0B4FA0548DC3000F0B0FA0349044878
:102F30008C3141631431816370BD0000C4080020EE
:102F40002400002030B5134900E011460A6882428F
:102F5000FBD34B685C18844203D140681844486036
:102F600008460D6844682318AB420DD1094B183B45
:102F70001B689A4206D05268224442600A6812686E
:102F8000026002E0036000E00260814200D008605D
:102F900030BD00008C00002070B50024416000614D
:102FA0000C4D91420AD8D11A8269914201D3012471
:102FB0000EE0011D286900F077FA09E09A4203D279
:102FC000994201D3012403E0011DE86800F06CFA86
:102FD000204670BD6000002010B5044600F088FA5D
:102FE000A06B20B1002400F0A3FA204610BD0124FC
:102FF000F9E710B5044600F07BFAA06BE16B88425C
:1030000001D1012400E0002400F092FA204610BD16
:10301000F8B505460E461748C068C068C468201D4C
:1030200000F00AFA94F82400410718D5A0692B464D
:10303000411932462046FFF7AFFFA0B100200346FA
:10304000014600902A46204601F02EF958B950203A
:1030500080F31188BFF34F8FBFF36F8FFEE720F02F
:10306000010084F82400216A01B02046BDE8F04048
:10307000084700006000002030B585B0394D67E09A
:103080000298002864DB049C606910B1201D00F0E8
:10309000D3F901A800F0B0F8024602980A2857D2E6
:1030A000DFE800F00505052D334A05052D3394F8BA
:1030B000240040F0010084F824000398A16903462D
:1030C00001442046FFF768FF68B3216A204688471D
:1030D00094F8240040073BD5002000900398A16994
:1030E000002342181946204601F0DEF8D8B95020D6
:1030F00080F31188BFF34F8FBFF36F8FFEE714F893
:10310000240F20F00100207022E094F8240040F009
:10311000010084F824000398A06128B181181346A7
:103120002046FFF739FF13E0502080F31188BFF3EA
:103130004F8FBFF36F8FFEE794F82400810703D40D
:10314000204600F00BFA03E020F0010084F8240090
:10315000002202A9286800F097FD002890D105B050
:1031600030BD000060000020F8B506460D4600F0B6
:103170004FFB684600F040F80446009810B100F09C
:10318000C5FFF8BD45B9A64206D800F0BFFF2146ED
:103190003046FFF73DFFF8BD0C481DB101690968D5
:1031A00091B10025311B2A46006800F057FA00F063
:1031B000ADFF0028EFD106494FF080500860BFF303
:1031C0004F8FBFF36F8FF8BD0125EBE76000002044
:1031D00004ED00E00748416B0968002905D0416B08
:1031E000C968C9684968816270474FF0FF318162E0
:1031F000704700002400002070B5054600F08EFEE8
:103200000446074EB068844204D200F00BF8012057
:10321000286001E000202860B460204670BD0000F6
:1032200060000020F8B51A4E20E0C0680568C46848
:10323000201D00F001F9216A2046884794F82400F7
:10324000400713D5A0692844A84206D960602461CC
:10325000211DF06800F028F908E00020034601462F
:1032600000902A46204601F01FF840B1F06801683E
:103270000029DAD1F0683169F1603061F8BD502081
:1032800080F31188BFF34F8FBFF36F8FFEE700000D
:103290006000002009484068401C07D0502080F39F
:1032A0001188BFF34F8FBFF36F8FFEE7502080F37D
:1032B0001188BFF34F8FBFF36F8FFEE7940000209C
:1032C00008B56846FFF748FD0099FFF74DFFFFF787
:1032D000D3FEF6E72DE9F041044600F009F994F930
:1032E000455004F1240609E0606A48B1304600F018
:1032F000CFFE08B100F006FA6D1E6DB2002DF3DCB2
:103300004FF0FF3684F8456000F012F900F0F0F855
:1033100094F9445004F1100709E0206948B1384697
:1033200000F0B6FE08B100F0EDF96D1E6DB2002D93
:10333000F3DC84F84460BDE8F04100F0F9B8000027
:103340002DE9F0410546002600F062FA324F386858
:1033500008B9FFF713FD786905424DD18DB10835E5
:1033600068070ED005F00700C0F1080005446807A3
:1033700007D0502080F31188BFF34F8FBFF36F8FBA
:10338000FEE7CDB37868854236D823491831084620
:10339000046801E0214604466068A84202D2206821
:1033A0000028F7D13868844226D00E680836206895
:1033B00008606068411B10290ED96019420707D0C8
:1033C000502080F31188BFF34F8FBFF36F8FFEE75C
:1033D00041606560FFF7B6FD61687868401A786003
:1033E000BA68904200D2B8607869014361600020F9
:1033F0002060F868401CF86000F088FE700707D075
:10340000502080F31188BFF34F8FBFF36F8FFEE71B
:103410003046BDE8F08100007400002020384FF0F5
:103420008073C36121F0010181610249416140F86B
:1034300020297047953200080169D0E901329A606D
:10344000D0E901235A604A68824201D182684A6009
:10345000002202610868401E08600868704700008A
:10346000034B036003F15400086080201060704734
:10347000F4000020044B036003F1540008604FF493
:1034800080701060704700004803002000F10801C0
:1034900041604FF0FF328260C16001610021016034
:1034A000704700210161704730B50C68621C02D082
:1034B00000F1080202E0026904E01A4653681D6840
:1034C000A542FAD953684B6099608A6051600861DF
:1034D0000168491C016030BD42684A6093688B6096
:1034E00093685960916008610168491C01607047E8
:1034F000502080F31188BFF34F8FBFF36F8F0A49BD
:103500004868401C486001280CD10848006810F049
:10351000FF0F07D0502080F31188BFF34F8FBFF308
:103520006F8FFEE7704700009400002004ED00E07C
:1035300009494868002806D0401E4860002801D18B
:1035400080F311887047502080F31188BFF34F8FAC
:10355000BFF36F8FFEE700009400002070B50028D5
:103560002AD008380446154D60686969084207D1B9
:10357000502080F31188BFF34F8FBFF36F8FFEE7AA
:1035800022683AB1502080F31188BFF34F8FBFF308
:103590006F8FFEE78843606000F03AF96068696801
:1035A000084468602046FFF7CDFC2869401C28616C
:1035B000BDE8704000F0AABD70BD0000740000209E
:1035C0004FF0E02000210161816105494FF47A72DA
:1035D0000968B1FBF2F1491E4161072101617047A1
:1035E0002000002010B5FCF7D3FD114910280ED3A0
:1035F00000F1E02090F8F0030A78904207D25020C2
:1036000080F31188BFF34F8FBFF36F8FFEE7094838
:103610000068896800F4E060884207D9502080F390
:103620001188BFF34F8FBFF36F8FFEE710BD00000F
:10363000940000200CED00E010B50022064B53F87A
:1036400032401CB1521C082AF9D310BD43F8321085
:1036500003EBC201486010BD8408002070B5044629
:103660000D461646FFF744FF94F944304FF0000032
:103670005B1C01D184F8440094F94510491C01D128
:1036800084F84500FFF754FFA06B28B9324629465D
:1036900004F1240000F056F82046BDE87040FFF722
:1036A00019BE000010B502460020002A12D00F48B3
:1036B000006B38B1502080F31188BFF34F8FBFF3F8
:1036C0006F8FFEE700F0A4F800211046FFF712FA12
:1036D00000F01CFD002807D105494FF0805008601C
:1036E000BFF34F8FBFF36F8F10BD00002400002089
:1036F00004ED00E002490A6A0260C968416070474F
:103700002400002001490120C861704724000020E6
:1037100010B50C4600280AD0094909681831FFF78E
:10372000C3FE2046BDE810400121FFF7E3B9502059
:1037300080F31188BFF34F8FBFF36F8FFEE7000058
:103740002400002070B50D46144600280DD00B490A
:1037500009681831FFF7C0FE0CB14FF0FF35214664
:103760002846BDE87040FFF7C5B9502080F31188A6
:10377000BFF34F8FBFF36F8FFEE7000024000020E0
:1037800030B587B000250695059504AA05A906A8B9
:10379000FFF766FEDDE90510CDE900510290002338
:1037A00017A11948049A00F07DFB184CE06208B19B
:1037B000012000E00020012801D100F041FD012896
:1037C00009D0401C19D1502080F31188BFF34F8FCE
:1037D000BFF36F8FFEE7502080F31188BFF34F8F48
:1037E000BFF36F8F4FF0FF30A06201206061E56092
:1037F00007B0BDE8304000F043B807B030BD00006E
:1038000049444C4500000000C92D00082400002058
:103810000248016B491C016370470000240000202E
:10382000154A106B002802D00120D061704700209B
:10383000D0611069B0FA80F0C0F11F000F4900EBB1
:10384000800051F8203073B101EB80004168496875
:10385000416000F10803994201D149684160406824
:10386000C06810607047502080F31188BFF34F8FFD
:10387000BFF36F8FFEE7000024000020C408002083
:103880001CB5264908780190FF2008700878009040
:103890009DF800009DF8002000F0F000904207D055
:1038A000502080F31188BFF34F8FBFF36F8FFEE777
:1038B0009DF800001A4C00F0500020700720A06016
:1038C00006E0A068401EA0609DF800004000009047
:1038D0009DF800000006F4D4A068032807D050200B
:1038E00080F31188BFF34F8FBFF36F8FFEE74FF464
:1038F0004070A060019808700A48016841F47001A6
:103900000160016841F070410160FFF759FE00203D
:103910006060FCF707FC00201CBD000000E400E034
:103920009400002020ED00E0F8B505460E4617464D
:10393000002D13D005FB06F04830FFF701FD0446CB
:1039400054B122464832002084F846003B463146B6
:1039500028460094FFF74CFA2046F8BD502080F32B
:103960001188BFF34F8FBFF36F8FFEE738B5049D0B
:10397000002804D05BB102B189B1C2B120E050206F
:1039800080F31188BFF34F8FBFF36F8FFEE7502096
:1039900080F31188BFF34F8FBFF36F8FFEE7502086
:1039A00080F31188BFF34F8FBFF36F8FFEE739B1FC
:1039B000502080F31188BFF34F8FBFF36F8FFEE766
:1039C000482400941C46012384F846302B4600947A
:1039D000FFF70EFA204638BD70B504460D46002CA0
:1039E00025D0FFF785FDD4E90F20216802FB0011E7
:1039F000A1600021A16321686160E06B2268216CF5
:103A0000401E00FB0121E1604FF0FF3084F84400CC
:103A100084F8450004F110008DB1FFF737FD04F183
:103A20002400FFF733FDFFF783FD012070BD502018
:103A300080F31188BFF34F8FBFF36F8FFEE72169CB
:103A40000029F0D000F024FB0028ECD004494FF00E
:103A500080500860BFF34F8FBFF36F8FE3E7000024
:103A600004ED00E02DE9FF4782B004468A461E4679
:103A70000025002C03D0BAF1000F08D011E050202F
:103A800080F31188BFF34F8FBFF36F8FFEE7206C79
:103A900038B1502080F31188BFF34F8FBFF36F8F81
:103AA000FEE7022E0AD1E06B012807D0502080F3F8
:103AB0001188BFF34F8FBFF36F8FFEE700F020FA3E
:103AC00048B9049838B1502080F31188BFF34F8F64
:103AD000BFF36F8FFEE74FF000094FF08057DFF81C
:103AE000E480FFF705FDA06BE16B884205D3022E51
:103AF00003D0049808B325B327E032465146204648
:103B0000FFF7D2F8616A59B104F1240000F0C0FA5D
:103B100068B1C8F80070BFF34F8FBFF36F8F06E036
:103B200028B1C8F80070BFF34F8FBFF36F8FFFF756
:103B3000FFFC012006B0BDE8F087FFF7F9FC00208C
:103B4000F8E76846FFF7D6FD0125FFF7F1FCFFF720
:103B50005FFEFFF7CDFC94F94400401C01D184F8CE
:103B6000449094F94500401C01D184F84590FFF73A
:103B7000DFFC04A9684600F025F930B12046FFF7C4
:103B8000A9FB00F0C3FA0020D4E72046FFF731FA82
:103B900090B104F110000499FFF7BAFD2046FFF739
:103BA00099FB00F0B3FA00289BD1C8F80070BFF36E
:103BB0004F8FBFF36F8F94E72046FFF78BFB00F02A
:103BC000A5FA8EE704ED00E02DE9F04704468946AA
:103BD00090461F46002C03D0B9F1000F08D011E029
:103BE000502080F31188BFF34F8FBFF36F8FFEE734
:103BF000206C38B1502080F31188BFF34F8FBFF392
:103C00006F8FFEE7022F0AD1E06B012807D050200A
:103C100080F31188BFF34F8FBFF36F8FFEE7FFF77D
:103C2000E1FC5020EFF3118680F31188BFF34F8F32
:103C3000BFF36F8FA06BE16B884206D3022F04D0D5
:103C4000002086F31188BDE8F08794F94550A06BF9
:103C50003A4649462046FFF727F8681C04D06D1CF9
:103C600084F845500120ECE7606A0028FAD004F19E
:103C7000240000F00DFA0028F4D0B8F1000FF1D0C4
:103C80000120C8F80000EDE72DE9F74783B00446AE
:103C90008A460026002C03D0BAF1000F08D011E0AC
:103CA000502080F31188BFF34F8FBFF36F8FFEE773
:103CB000206C38B1502080F31188BFF34F8FBFF3D1
:103CC0006F8FFEE700F01CF948B9059838B1502015
:103CD00080F31188BFF34F8FBFF36F8FFEE700278C
:103CE0004FF08058DFF8D890FFF702FCA56BC5B104
:103CF00051462046FEF7C4FF6D1EA563206950B1F2
:103D000004F1100000F0C4F928B1C9F80080BFF335
:103D10004F8FBFF36F8FFFF70BFC012006B0BDE89C
:103D2000F087059808B126B107E0FFF701FC0020F5
:103D3000F4E701A8FFF7DEFC0126FFF7F9FBFFF728
:103D400067FDFFF7D5FB94F94400401C01D184F8CE
:103D5000447094F94500401C01D184F84570FFF788
:103D6000E7FB05A901A800F02DF858B12046FFF7A0
:103D7000B1FA00F0CBF92046FFF72EF90028B3D0B6
:103D80000020CBE72046FFF727F990B104F124008B
:103D90000599FFF7BDFC2046FFF79CFA00F0B6F945
:103DA0000028A1D1C9F80080BFF34F8FBFF36F8FF8
:103DB0009AE72046FFF78EFA00F0A8F994E7000092
:103DC00004ED00E02DE9F04105460C46002D11D030
:103DD000C4B1FFF78DFB194EF0686B68C11A2268F9
:103DE000571C17D02F68366AB74215D0834213D8B4
:103DF00001241DE0502080F31188BFF34F8FBFF3E3
:103E00006F8FFEE7502080F31188BFF34F8FBFF311
:103E10006F8FFEE700240BE08A4206D9501A20601B
:103E20002846FFF767FC002402E000202060012400
:103E3000FFF77EFB2046BDE8F08100002400002053
:103E40002DE9FF5F8146DDE90E788A4616469B46DE
:103E5000B000FFF775FA054628000AD05420FFF796
:103E60006FFA04460CB1256304E02846FFF776FBA1
:103E700000E000249CB1002084F85100CDE902400C
:103E8000CDE900785B46324651464846FEF7BCFF16
:103E90002046FEF767FE012004B0BDE8F09F4FF01A
:103EA000FF30F9E7F0B585B00746DDE90A600C9C04
:103EB000002815D0E4B1542503952063022084F82E
:103EC0005100002004ADCDE90240CDE9006538463F
:103ED000FEF79AFF2046FEF745FE049805B0F0BDB8
:103EE000502080F31188BFF34F8FBFF36F8FFEE731
:103EF000502080F31188BFF34F8FBFF36F8FFEE721
:103F000005484169002903D0006B18B100207047B3
:103F10000120704702207047240000200148C0683B
:103F200070470000240000202DE9F0410026304FAA
:103F3000386B002805D0B869401CB8613046BDE830
:103F4000F081FD686D1CFD609DB9786B006838B12B
:103F5000502080F31188BFF34F8FBFF36F8FFEE7C0
:103F6000786BB96B7963B863386A401C3862FFF7C5
:103F700031F9B86ADFF87C8085420DD3786B006830
:103F800038B1786BC068C4686068854212D2B86284
:103F900002E04FF0FF30B8623868C06A00EB800082
:103FA00058F82000012800D90126F8690028C5D05A
:103FB0000126C3E7201DFFF73FFAA06A18B104F1FC
:103FC0001800FFF739FAE06A01213A69814011438C
:103FD000396100EB800008EB8000211DFFF77CFABF
:103FE000E06A3968C96A8842C8D30126C6E700007A
:103FF00024000020C408002070B504460020002CD6
:1040000041D0214D29688C4207D0502080F311887F
:10401000BFF34F8FBFF36F8FFEE7A16C71B1491EE5
:10402000A164636CE26A9A422DD000292BD1201D35
:10403000FFF702FA154A012140B112E0502080F347
:104040001188BFF34F8FBFF36F8FFEE7E06A00EB7D
:10405000800352F8233023B901FA00F3286998430A
:104060002861606CE062C0F10700A061E06A2B6922
:1040700081401943296100EB800002EB8000211D83
:10408000FFF72AFA012070BD24000020C408002098
:104090002DE9F041C068C468002C15D004F1180067
:1040A0000746FFF7C9F9174D2A6B0126A2B1394619
:1040B0001548FFF711FAE06A2968C96A88421ED9D3
:1040C0000120EE61BDE8F081502080F31188BFF33C
:1040D0004F8FBFF36F8FFEE7201DFFF7ADF9E06A4A
:1040E0002A6906FA00F111432961074900EB8000B3
:1040F000B43901EB8000211DFFF7EEF9DBE700206A
:10410000E0E7000024000020780900202DE9F041BC
:10411000002400272D4D286B002807D0FFF7E8F971
:10412000286B401E2863286B40B14AE0502080F382
:104130001188BFF34F8FBFF36F8FFEE7A868E8B316
:10414000DFF88C8001261EE0D8F80C00C46804F16A
:104150001800FFF771F9201DFFF76EF9E06A2A6970
:1041600006FA00F111432961194900EB8000B439C6
:1041700001EB8000211DFFF7AFF9E06A2968C96AE9
:10418000884200D3EE61D8F800000028DCD10CB1E1
:10419000FFF720F8AC6944B1FFF7C6FE00B1EE614D
:1041A000641E002CF8D10020A861E86930B1012715
:1041B000084938070860BFF34F8F00E001E0BFF304
:1041C0006F8FFFF7B5F93846BDE8F0812400002075
:1041D0007809002004ED00E02DE9FC4706460A9D21
:1041E0000F46904699462820FFF7AAF8044654B196
:1041F000002084F82400CDE900544B46424639465D
:104200003046FEF74BFE2046BDE8FC877CB50646EF
:10421000DDE9060428250195002C09D0022584F843
:104220002450CDE900043046FEF738FE20467CBD20
:10423000502080F31188BFF34F8FBFF36F8FFEE7DD
:1042400030B587B00024FEF7D1FC134D2868B0B11B
:1042500000200690059004AA05A906A8FFF70AF910
:10426000DDE905100222CDE90021029000230BA117
:104270000C48049AFFF716FE686000B1012414B1DF
:1042800007B0204630BD502080F31188BFF34F8F18
:10429000BFF36F8FFEE7000060000020546D7220B6
:1042A00053766300C1320008FEB50646089F9C465F
:1042B0000020002E13D0154D2C68002C0ED000913C
:1042C00001920296062919DAFFF71AFE02280ED08B
:1042D00000231A4669462868FFF7C4FBFEBD50203C
:1042E00080F31188BFF34F8FBFF36F8FFEE700237A
:1042F0003A4669462868FFF7B5FBFEBD00236246D3
:1043000069462046FFF760FCFEBD0000600000200B
:104310005907000800000000B44300089F19000876
:10432000000000000000000080000000000000000D
:1043300000000000A8430008A919000800000000C0
:1043400000000000800000000000000000000000ED
:10435000C0430008AD2A0008000000000000000073
:1043600080000000000000000000000001020203C5
:104370000405060708090A0B0C0D0E0F10100000AB
:104380000000000000000102030406070809000005
:104390000000010203043031323334353637383906
:1043A00041424344454600006D795461736B4C456E
:1043B0004400000064656661756C745461736B0041
:1043C0006D795461736B5072696E7400EC43000830
:1043D00000000020A40000004820000890440008CD
:1043E000A4000020B41E00005820000800000000B7
:1043F00000000000000000000000000000000000BD
:1044000001000000100000000000000000127A000F
:10441000000000000000000000000000000000009C
:10442000000000000000000000000000000000008C
:10443000000000000000000000000000000000007C
:10444000000000000000000000000000000000006C
:10445000000000000000000000000000000000005C
:10446000000000000000000000000000000000004C
:10447000000000000000000000000000000000003C
:1044800000000000AAAAAAAA000000000000000084
:04000005080000ED02
:00000001FF
